:1000000000000320D10100009520020061200200C1
:1000100061200200612002006120020061200200D4
:100020006120020061200200612002009520020090
:1000300095200200612002006D150200512002008F
:1000400095200200952002009520020095200200D4
:1000500095200200952002009520020095200200C4
:1000600095200200952002009520020095200200B4
:1000700095200200952002009520020095200200A4
:100080009520020095200200952002009520020094
:100090009520020095200200952002009520020084
:1000A0009520020095200200952002009520020074
:1000B00095200200952002009520020039080200D8
:1000C000952002003F08020095200200450802002A
:1000D000952002004B0802009520020095200200A6
:1000E000952002009520020085FF01008BFF010092
:1000F00091FF01009520020095200200952002004A
:100100009520020095200200952002009520020013
:10011000952002008D250200952002009520020006
:1001200095200200952002009520020095200200F3
:1001300095200200952002009520020095200200E3
:10014000952002009520020051080200952002002F
:1001500095200200952002009520020095200200C3
:1001600095200200952002009520020095200200B3
:1001700095200200952002009520020095200200A3
:1001800095200200811302009520020095200200B4
:100190009520020095200200952002009520020083
:1001A0009520020095200200952002009520020073
:1001B0009520020095200200952002009520020063
:1001C0009520020095200200952002009520020053
:1001D0005D4B4CF2205210B51A804DF628121A8051
:1001E00000BF00BF21F05AFF584B4FF030621A6039
:1001F000574A9A60574ADA60574B4FF470021A60B8
:10020000564B574A1A60574A136813F4807301BF5C
:1002100055490B604FF4A8531360544B1A781107DB
:1002200048BF1A78524944BF42F008021A70514B35
:10023000AA221A70504A514B8B4204D252F8040F32
:1002400043F8040BF8E74E4B4E4A0021934202D28A
:1002500043F8041BFAE74C4A4C48002350F823109B
:1002600042F823100133742BF8D1494B494A8021BD
:1002700003F8011B9342FBD1474B434A1A60474B9B
:100280008A221A70A3F5805324225A70A0221A7071
:100290009A799207FCD59A79D406FCD4404A93798E
:1002A00003F00C03082BFAD13E4B60221A703E4A31
:1002B0001378802BFCD13A4B01221A715D225A71BE
:1002C0009A799006FCD59979354A4906FBD5374B82
:1002D000374919600021596020231370937903F086
:1002E0000C030C2BFAD1334B334A1A60334B344A8C
:1002F0001A6000225A60072243F8042C314AC3F8DE
:100300000C2D62B621F056FF174B1B68DA0705D596
:100310002D4821F0CBFE2D4B2D4A1A602D4B1B781A
:100320005B0609D5294C2A4B22689A4204D12648FB
:1003300021F0BCFE002323601EF0DAFB21F0B4FEA6
:100340001EF03CFBFEE700BF0E200540308004405D
:10035000823F04000100002B88ED00E0002008E04F
:100360000300008510D0034014D0034002D00740A2
:100370001C0CFF1F00E0074068D403003007FF1F7C
:100380001C0CFF1F0413FF1F0002FF1F00000000D2
:1003900000E400E064E400E008ED00E00050064006
:1003A0000040064001E0074003E00740448004406D
:1003B0000000060204800440C010070014E000E0C2
:1003C0001FBF020000002020036433581CE00340DC
:1003D000A5C3945A00F00740FFFFFFFFFFFFFFFF98
:1003E000FFFFFFFFFFFFFFFFFFFFFFFFFFFFFFFF1D
:1003F000FFFFFFFFFFFFFFFFFFFFFFFFFFFFFFFF0D
:10040000FFFFFFFFFFFFFFFFFFFFFFFFDEF9FFFF23
:10041000C460056146618761C0F81C80C0F8209007
:10042000C0F824A0C0F828B0C0F82CD0C0F808E06C
:1004300000F002B80020FFFF024B9A68026098604B
:10044000002070477410FF1F024B9A6812689A6070
:10045000704700BF7410FF1F0E4B9C6806461D4678
:100460000CB91EF08FFA23686660AB602046C46842
:10047000056946698769D0F81C80D0F82090D0F8CB
:1004800024A0D0F828B0D0F82CD0D0F808E0012073
:100490007047FEE77410FF1F10B50021044600F0FE
:1004A0003FFB28B920461CB1BDE810400EF09CBBB4
:1004B00010BD002100F034BB10B50121044600F04E
:1004C0002FFB28B920461CB1BDE810400EF08CBBB4
:1004D00010BD10B50446FFF7DFFF28B920461CB158
:1004E000BDE810400EF080BB10BD10B501220C46D7
:1004F00000F092FC28B920461CB1BDE810400EF077
:1005000073BB10BD00F088BC00F0E6BB3548D0F8E6
:10051000FC312DE9F0474FF0030E00F1FC060446D4
:1005200000F5FE77B34246D91D1FD0F8E4C053F85A
:10053000041CC0F8FC51002201328B184FEA9308CA
:1005400003F003031CF808805B0048FA03F303F090
:100550000303022BF0D0D0F8F03012014FEA920CD6
:1005600003EB0113002A3AD0043B53F8042F110780
:100570001AD1D0F8F0108A4216D3D4F8F450AA4217
:1005800012D2521A48BF0F3212114FEA9209D0F814
:10059000E4A002F003011AF80980490048FA01F5C5
:1005A00005F00305012D08D0BCF1010CDDD1D0F818
:1005B000FC31B342B8D8BDE8F0870EFA01F141EA48
:1005C00008080AF80980D4F8FC11B94201F10408BE
:1005D00036BFC4F8FC81C4F8F8500A60E4E72B4643
:1005E000A0E700BF7410FF1FF8B5030704D12D4E1C
:1005F000D6F8F030984202D2002845D1F8BDD6F89E
:10060000F4209042F8D2C31A48BF0F331B119C0844
:10061000D6F8E420234F125D03F0030149000A419C
:1006200002F00302012A184635D1D908D7F8ECE0C8
:1006300003F0070C1EF8015002FA0CF225EA020240
:100640000EF80120D7F80C22D6F8E450944238BFB7
:10065000C7F80C422A5D03279C0803F003035B00E4
:1006600007FA03F322EA03022A550130D6F8E450D0
:10067000840800F003032A5D590042FA01F101F0F9
:1006800003010229EBD0F8BD0748084A084B40F2A5
:1006900035211EF083F90448044A054B40F231210C
:1006A0001EF07CF97410FF1F48C8020094C90200B4
:1006B00054C8020021F00F01F8B50A1A1B4D1C4C5A
:1006C000D200A5FB0252520A950007358718ED08A3
:1006D000A1EB821607EB050E7645C4F8EC70C4F862
:1006E000E820C4F8E400C4F8F410C4F8F06017D3AC
:1006F000002122F089FC2A460021D4F8EC0022F0E7
:1007000083FC002301214FF0FF32C4F80C32A4F81F
:100710000032C4F80432A4F80212C4F80822F8BD6A
:100720000448054A054B87211EF038F9F32C23FABB
:100730007410FF1F48C802009CC9020060C8020074
:10074000034AB2F800320133A2F80032704700BF0A
:100750007410FF1F034AB2F80032013BA2F80032C6
:10076000704700BF7410FF1F034BB3F80002003046
:1007700018BF0120704700BF7410FF1F2DE9F84318
:10078000264CB4F80032002204F1FC010133A4F835
:100790000032C4F8FC11C4F80422C4F8F820A4F113
:1007A000040904F1CC05264604F5FE78032759F820
:1007B000043F1A0719D1D4F8F020934215D3D6F884
:1007C000F4108B4211D29B1A48BF0F331B119808AB
:1007D000D4F8E4E003F003021EF800C052004CFA23
:1007E00002F101F00301012905D0FFF78FFEA945B1
:1007F000DDD1BDE8F88307FA02F242EA0C020EF8F6
:100800000020D6F8FC21424502F1040036BFC6F8AC
:10081000FC01C6F8F8101360E7E700BF7410FF1F73
:10082000002942D02DE9F047204E0D46A0F10409E1
:10083000374606F5FE78002459F8043F1A0719D107
:10084000D6F8F0108B4215D3D7F8F420934211D28A
:100850005B1A48BF0F331B119808D6F8E4E003F089
:1008600003021EF800C052004CFA02F101F003012D
:10087000012906D00134FFF749FEAC42DCD1BDE8C6
:10088000F0874FF0030A0AFA02F242EA0C020EF86D
:100890000020D6F8FC21424502F1040036BFC6F81C
:1008A000FC01C6F8F8101360E4E770477410FF1FEE
:1008B0002DE9F04F544ED6F8E800D6F8F83083B062
:1008C000800006F1FC0537463BB30024C6F8FC5116
:1008D000C6F8F84018B944E00134844219D2A3089C
:1008E000D6F8E41004F00302CB5C5200134103F08D
:1008F0000303032BF0D1D7F8FC311A1DC7F8FC21F4
:100900001C60FFF703FED7F8E80001348000844242
:10091000E5D3D6F8F830002BD7D110B39C46DFF8DA
:10092000E8901D464FF0030A06E0032B60D0012B30
:1009300022D00135854214D2AF08D6F8E42005F064
:100940000304D15D640041FA04F303F00303022BB6
:1009500002EB070EE9D1BCF1000F3DD10135854214
:10096000EAD3B6F800320022013BA6F80032C6F8FE
:100970000C2203B0BDE8F08F4FEAD50BD9F8EC207C
:1009800012F80BC005F007084CFA08F0C3075A44E8
:1009900022D52901D9F8F0004358084483B16A46AA
:1009A00040F249110DF06EFA009A22B100206A4619
:1009B00001460DF00FFAD6F8EC2012F80BC05A449D
:1009C000012303FA08F32CEA030C82F800C0D6F8DE
:1009D000E430D95D03EB070E0AFA04F321EA0301C0
:1009E0008EF80010D6F8E8004FF0010C8000A0E768
:1009F0000223A34021EA0301D155D9F8E8004FF0C2
:100A0000000C800095E700BF7410FF1F434BD3F824
:100A1000F010D3F8F4202DE9F04F521A0025D3F846
:100A2000E490D3F8E830856080E82400C560056173
:100A30004561856199F800B04FEA83082E46AC46BF
:100A4000AA46AE4629462A462F467F004BFA07FBA8
:100A50000BF00303012B31D03FD3022B02D101361F
:100A6000466001310132C2EB0804B4FA84F464092F
:100A700064B9930802F0030719F803B07B004BFA3E
:100A800003F313F0030301D0012BDED101292CD095
:100A900002292ED0A94284BF81610D4694B9012B51
:100AA0004FEA920329D019F803B002F003077F0040
:100AB0004BFA07FB0BF00303012BCDD10136466047
:100AC0001946CFE7D64501D9C0F80CE036014FEA08
:100AD0000C1346608360BDE8F08F0CF1010CC0F888
:100AE00008C00EF1010E0021BCE70769013707615C
:100AF000D0E7476901374761CCE7D64505D8A64618
:100B000019F803B002F003079FE7C0F80CE0F246C3
:100B100019F803B0A64602F0030796E77410FF1F0A
:100B20000F302DE9F84F060957D06A4FB7F8003259
:100B3000002B52D1B7F802420D46002C50D1D7F805
:100B40000C22D7F8E8E0724538BF4FF0010C44D2D0
:100B5000D7F8E40081181AE00134A64252D913F004
:100B60000C0F1ED10134A64240F2A88013F0300FC2
:100B70001CD10134A64240F2A48013F0C00F1AD158
:100B80000134A64240F2A0800132724518D211F819
:100B9000013B13F0030FDFD013F00C0F4FF00004F4
:100BA000E0D013F0300F4FF00004E2D013F0C00F8C
:100BB0004FF00004E4D0013272454FF00004E6D358
:100BC000BCF1000F09D120F061FCD7F80C22D7F856
:100BD000E8E072454FF0010CBAD30020BDE8F88F71
:100BE000D7F80422D7F808329A4270D2D7F80C22EC
:100BF000D7F8E8E0724528BF0024E4D24FF0000C9B
:100C00006446A5E79300012CA3EB040103F1010C5A
:100C100001F1010804BF4FEA9C02C7F80C224FEA19
:100C2000980208F003094FEA490910F802E001248C
:100C300004FA09F4023144EA0E048B42845428BFBA
:100C40004FF0020910D34FEA910ED7F8E42001F0DB
:100C5000030412F80E00640009FA04F40131204381
:100C60008B4202F80E00EED2D7F8F0B0D7F804327B
:100C7000DFF860904FEA081AC8EB0C020BEB0A048D
:100C80001E44120120460021C7F8046222F0BCF97C
:100C900015B92046BDE8F88F0023D9F8EC504BF881
:100CA0000A304FEAD80101236A5C08F0070803FA0A
:100CB00008F313436B542046BDE8F88F9200531C91
:100CC000A1E79200931C9EE79200D31C9BE720F0C3
:100CD000DDFB8BE77410FF1FF8B5304CB4F8003221
:100CE0001BB9030702D0002849D1F8BDD4F8F03071
:100CF0009842F8D3D4F8F4209042F4D2C31A48BFF3
:100D00000F331B119E08D4F8E420244F925D03F0AA
:100D1000030149000A4102F00302012A194635D1B4
:100D2000D808D7F8ECE003F0070C1EF8005002FAE0
:100D30000CF225EA02020EF80020D7F80C22D4F8B3
:100D4000E450964238BFC7F80C62AA5D03279E089C
:100D500003F003035B0007FA03F322EA0302AA5538
:100D60000131D4F8E4508E0801F00303AA5D580065
:100D700042FA00F000F003000228EBD0F8BD08486A
:100D8000084A094B40F235211DF008FE0448054A87
:100D9000054B40F231211DF001FE00BF7410FF1F12
:100DA00048C8020094C9020054C8020010F00F03A2
:100DB0001DD1184AD2F8F010884219D310B4D2F8D5
:100DC000F440A0420FD2401A48BF0F300111D2F8B0
:100DD000E4408A0801F00300A25C4000024102F0F6
:100DE0000302012A06D018465DF8044B7047002321
:100DF00018467047002001300B189A0803F00303CF
:100E0000A25C5B0042FA03F303F00303022BF2D06F
:100E10000301E8E77410FF1F2DE9F047044600289E
:100E200000F0D080002967D0030769D1DFF8BCE16A
:100E3000DEF8F000844263D3DEF8F4309C425FD2E7
:100E4000201A48BF0F304FEA20184FEA9803DEF807
:100E5000E4706648FE5C08F003035B001E4106F088
:100E60000306012E4CD1B0F80052002D48D1D0F825
:100E7000E83008F101004FEA830901F10F0C8145C8
:100E80004FEA1C1C10D9830800F0030AFB5C4FEAF0
:100E90004A0A43FA0AF303F00303022B33D01BB9C7
:100EA0000135AB199C452FD8B44522D0664534D9BD
:100EB000B6EB0C0608EB0C0013D0064403464FF0CB
:100EC000030C01E0DEF8E4709D0803F003017A5D95
:100ED00049000CFA01F1013322EA0102B3427A55CA
:100EE000F0D1DEF80C32414A8008984201D2C2F8B3
:100EF0000C022046BDE8F0873C4BB3F800423CB101
:100F00000020BDE8F087013601308145BBD8CBE732
:100F1000FFF76AFB2046BDE8F0873544AC4533D87F
:100F200006EB080508EB0C00854222D2A90805F063
:100F300003037A5C5B0042FA03F818F0030F3944AC
:100F400008BF02270ED049E0A908DEF8E48005F0CA
:100F5000030318F801205B0042FA03F919F0030FAC
:100F600041443BD107FA03F30135134385420B702B
:100F7000EAD3C6EB0C02120104EB0610002122F0AA
:100F800043F82046BDE8F087DEF8EC70174D4FEAD5
:100F9000D80308F00700FB5C034103F00103002ABB
:100FA000AED008461946FFF7BBFD07460028A7D07C
:100FB0003201214621F0E5FFB5F8003243B1384651
:100FC000BDE8F08708462146BDE8F047FFF7A8BD19
:100FD0002046FFF709FB3846BDE8F0870448054A7C
:100FE000054B40F2CB211DF0D9FC00BF7410FF1F50
:100FF00048C802003CC80200C4C8020010B58AB04C
:1010000003A80B4CFFF702FD0599039A049B00917E
:101010002046084900F0A2FF099806990090019126
:10102000079A089B0449204600F098FF0AB010BDBB
:101030002CF70200E0C8020004C902002DE9F041CB
:10104000544F55495548D7F8F02000F087FFD7F89E
:10105000E810890018BF00251ED180E005F00306C6
:1010600076004FEA9508D7F8E4304A4A13F808307A
:10107000334103F00303022B6FD0032B6BD0012B02
:1010800044D02E224649454800F068FFD7F8E810C2
:1010900001358900A94262D9A806DFD18D426CD200
:1010A000D7F8E4004FEA950805F0030610F8083079
:1010B000760033419A0721D12C4604E0825C42FA43
:1010C00003F39B0708D1013404F003038C424FEA79
:1010D00094024FEA4303F1D3621B7F2A0ED992098F
:1010E0002E48304900F03AFFD7F8E83024F03F05A9
:1010F000B5EB830F33D24FEA950800262A4A2B49D5
:1011000026482B011A4000F029FFACE7D2F8F01076
:10111000274A2B01CB58934229D0264A934228D004
:10112000254A93422FD0254A93421ED0244A934207
:101130001BD0244A93421ED0234A93421BD0234AF9
:10114000934222D0224A934221D0224A93420CBF9A
:101150004D22682296E76D2294E73D2292E70F48E0
:101160001D49BDE8F04100F071BB53228AE75422CB
:1011700088E74C2286E7412284E705F003067600E3
:101180004FEA9508BAE744227CE746227AE74222F2
:1011900078E700BF7410FF1F4CC902002CF7020053
:1011A00090C902006CC90200F0FF0F0088C902005C
:1011B000C4610300484E0300F83C0300AC5E03002A
:1011C00034590300F4390300B83903009C48030084
:1011D000544A0300FC4F030068C90200074B5B69D7
:1011E0004BB15A68904204D3801A043053F820005F
:1011F00070471B68F4E71846704700BF7410FF1F64
:1012000070B5144C636906469868DB68834216D350
:101210000230C000FFF74DF9054620B963699868B0
:1012200040000DF0E1FC63692B60D9685A689B6847
:101230005B00AB600A4400236A60EB606561636930
:10124000DA68501C0432D86043F822605B68013BC6
:10125000184470BD7410FF1F014441F205538842C9
:1012600005D210F8012B03EB43135340F7E798B274
:10127000002808BF01207047034B044A5A6100222E
:10128000C3F8D020704700BF7410FF1F1CCA0200B3
:101290002DE9F84F81468846FFF7DEFF154B5C6964
:1012A000834624B3E56804F1100A043504EB850590
:1012B0005646AE42374618D256F8040B42780378A9
:1012C00043EA02235B45F4D183784345F1D10330EF
:1012D0004946424621F0BAFE0028EAD16368CAEBCB
:1012E000070003EBA000BDE8F88F2468D9E720468B
:1012F000BDE8F88F7410FF1FFF292DE9F0478046E5
:101300000E4605D93348344A344BBC211DF046FB08
:10131000FFF7BEFF024600285AD1314CD4F8D00066
:10132000351DC8B1D4F8D830D4F8D4102B448B4232
:1013300012D92944FFF7E6F8074640B9D4F8D0009F
:10134000D4F8D810FFF7D1F8C4F8D07004E0D4F87E
:10135000D4302B44C4F8D430D4F8D030CBB97F2D5E
:101360008CBF2F4680273846FFF7A3F8C4F8D0007B
:1013700050B92846FFF79DF8194BC3F8D00010B9B3
:1013800028460DF031FC2F460023C4F8D470C4F871
:10139000D830D4F8D890D4F8D0A031464D44404647
:1013A000C4F8D850FFF758FF0AEB09070AF80900FC
:1013B000000A7870BE70F81C414632463E4421F067
:1013C000E0FD0023F3703846BDE8F047FFF718BF93
:1013D000BDE8F087E0D602000BCA0200EDD602009D
:1013E0007410FF1F10B5044621F042FE014620464E
:1013F000BDE81040FFF780BFFF2838B504460D4612
:1014000005D90748074A084BF7211DF0C7FA0430F1
:10141000FFF742F8286084702868033038BD00BFA9
:10142000E0D60200E5F60200EDD60200F8B58578B8
:10143000C71C044629463846FFF72AFF064668B906
:1014400038462946FFF708FF25442070000A6070DF
:10145000EE702046BDE8F840FFF7D2BE2046FFF709
:1014600053F83046F8BD08B5FFF7B8FE427800786B
:1014700040EA022008BD08B5FFF7B0FE807808BD3D
:1014800008B5FFF7ABFE033008BD10B50C46FFF7FB
:10149000A5FE83782360033010BDFFFF2DE9F041E6
:1014A0001D46002303600B6013602B60174B5C69C3
:1014B0000746884616461CB3154B9C4220D03B6815
:1014C00001333B60D8F80020E3681344C8F80030CB
:1014D000E368043304F1100204EB83039A4207D259
:1014E0003168081D52F8041B897801443160F5E722
:1014F0002046FFF75BFC2B68246818442860DAE775
:101500002A68336813442B60BDE8F0817410FF1F14
:101510001CCA02000C4B70B55C69A4B10B4B9C4219
:1015200011D0E368043304F1100604EB8305AE42E6
:1015300007D256F8042B06490648033200F00EFD88
:10154000F5E72468E9E770BD7410FF1F1CCA0200AC
:101550001AD702002CF7020038B54468036821440A
:10156000994205460DD9037BDB070CD401F1100429
:1015700024F00704083480682146FEF7B6FF2C608B
:10158000A860012038BD002038BD70B50E46114658
:1015900005461446FFF7E0FF38B92B7BDB070ED575
:1015A00095E818009C420AD21C1B6B68A86822466A
:1015B0001844314621F011FD6B681C446C6070BD0D
:1015C00070B50C46012105464668FFF7C5FF70B1AE
:1015D000B44228BF3446A968601C0844321B214429
:1015E00021F0FBFC6B68A86801336B60204470BD80
:1015F00038B504460025002914BF084601202060A4
:101600006560FEF749FF237BA06065F30003237349
:1016100038BD38B505460C460131FFF7E9FF6C606F
:1016200038BD00234360037B016043F00103826007
:101630000373704738B514460546FFF7D9FF024BD0
:101640002560636038BD00BF8B150000037BDB079E
:1016500010B5044602D48068FEF756FF0023A3604D
:1016600010BD38B505461020FEF716FF2946044682
:10167000FFF7BEFF204638BD10B5044650B1037BCE
:10168000DB0702D48068FEF73FFF2046BDE810402C
:10169000FEF73ABF10BD38B5037BDB0704460D46A5
:1016A0000AD4016880682944FEF71FFF2368A06000
:1016B0001D442560184438BD002038BD38B50446A7
:1016C0000D46FFF749FF20B16368A0681D446560BF
:1016D000184438BD90E80C009A4210B5044605D075
:1016E000A26863680021D154A06810BD0121FFF7F2
:1016F000D2FF0028F4D110BD10B50C460121FFF730
:10170000DDFF00B1047010BD7F2910B50C4606D86E
:101710000121FFF7D3FF002849D0047010BDB1F5B7
:10172000006F0ED20221FFF7C9FF00283FD0A309A6
:1017300004F03F0463F03F0364F07F0403704470DF
:1017400010BDB1F5803F12D20321FFF7B7FF70B390
:10175000230B63F01F030370C4F3851304F03F04ED
:1017600063F07F0364F07F044370847010BDB1F5B3
:10177000881F05D30E480F4A0F4BB0211DF00EF9FC
:101780000421FFF79BFF90B1A30C63F00F030370DC
:10179000C4F3053363F07F034370C4F3851304F08F
:1017A0003F0463F07F0364F07F048370C47010BD56
:1017B00004F70200F6F6020011F7020038B50546FC
:1017C00008460C4621F054FC214602462846BDE856
:1017D0003840FFF7DABE10B51446FFF7F1FE00B14E
:1017E000047010BD10B51446FFF7EAFE00B1047096
:1017F00010BD436899428CBF00235B1A4360704759
:1018000070B515464268914204460ED24B19934278
:1018100001D3416070BD8668521A7018521BF118CE
:1018200021F0DBFB6268521B626070BD07B5044BA0
:1018300000906846019300F045FA03B05DF804FBA0
:101840008B150000084611461DF0E8BE70B506462F
:1018500008460D4621F00CFC044620B196E809002C
:10186000294622469847204670BDFFFF2DE9F74FD5
:101870000D9C9146A41A9DF8302012F0DF0F064609
:101880008A4609D0302A0CAA264F0EBF4FF0100806
:1018900017464FF0010802E0234F4FF0100813F0F5
:1018A000800205D0022394FBF3F3E51A1C4602E004
:1018B00013F0010515D1002C16DDA346C345DC4607
:1018C000A8BFC446624696E809003946CDF804C070
:1018D0009847DDF804C0CCEB0B0BBBF1000FEDDC3F
:1018E00003E02546144600E00024B9F1000F05D0BE
:1018F00096E8090051464A4698474C44002D0DDDB4
:101900002C444545A946A8BFC14696E8090039467A
:101910004A46C9EB05059847002DF2DC204603B086
:10192000BDE8F08F7DF702008EF702002DE9F0434D
:1019300089B08046119E10989DF84890139F0AB96F
:1019400000220DE0002904DA2D228DF80F204942F3
:101950000EE0B40701D52B2202E07207F0D5202259
:101960008DF80F2021B908AC302304F8013D12E0B6
:1019700008ACB1FBF3F503FB1512092AC6BFA0F1B1
:101980000A0E7244303204F8012D04AA944229460A
:1019900001D9002DEDD116F040039DF80F500DD068
:1019A000ADB10122CDF80090019240460DF10F013A
:1019B0003346FFF75BFF013F054608E03DB104AA4F
:1019C000944284BF04F8015C04F1FF341D4608AB67
:1019D0001A1BCDF800900197404621463346FFF789
:1019E00045FF284409B0BDE8F083FFFF2DE9F04F23
:1019F00091B093469946CA079DF86C301A9E05939C
:101A000082460C461C9FDDF874800BD48B0703D1F3
:101A10000968814B994205D020460DF0A7FD400092
:101A200040F0010416F0810306D1059A302A03D153
:101A30004745B8BF47469846204610F03DFE00286F
:101A400008A90BDDB50701D52B2302E0720705D5E8
:101A500020238DF820300DF1210500E00D46F3061E
:101A600022D5BBF1020F06D12B46302003F8020B22
:101A700009F1010016E0BBF1080F0AD1B2054FF0E1
:101A800030032B7045BF09F10E036B700135023531
:101A90000AE0BBF1100F07D12B46302003F8020BF0
:101AA00009F1170068701D46002316F0200F0CBFC7
:101AB00018462C20B8F1010F0CAAC8BF46F040060A
:101AC000099216F0400F4FF010022B700B938DF817
:101AD0001F30A5EB01050A92CDF800B05FFA89F33B
:101AE00015D00022019202930390234609A80AA967
:101AF0000BAA10F085FC03782D2B834615D18DF8A9
:101B00001F300B9B013B00F1010B0B930DE001918A
:101B1000029303900AA909A80BAA234610F070FCAF
:101B2000B8F1010F834644DC02E0B8F1010F64DC38
:101B30004FF000094C46730619D59DF81F3053B17C
:101B4000002301220093019250460DF11F01FFF77F
:101B50008DFE013F044455B1002301220192009300
:101B6000504608A92A46FFF781FE7F1B0444059BC7
:101B70000B9AB8F1010FC8BF47468DE88800504660
:101B800059463346FFF772FE0444B9F1000F09D0FD
:101B9000202300228DE80802504620491346FFF713
:101BA00065FE044409980CAB984230D0FEF7ACFCBB
:101BB0002DE00B9C4445B8BF4446BC420ADA06F00F
:101BC0000103002BA7EB040416BFA1464FF0000948
:101BD000002402E04FF000094C4626F001064CB10B
:101BE000202300228DE8180050460C491346FFF7C9
:101BF0003DFE0446302305939DE70B9C9DF81F3066
:101C00004445B8BF444603B101342C44D5E72046CF
:101C100011B0BDE8F08F00BF084D030040B90300CC
:101C20002DE9F0438BB012F0020F07460C469146A7
:101C30009846129E05D112F0040F0CBF00232023FA
:101C400000E02B23009302A820212246139B0BF0D7
:101C5000CDF819F4807F20EAE0750DD06B1C1F2BA6
:101C60000ADC0AAA1544252205F8202C0AAA1A44DF
:101C7000002102F8201C1D4619F0400412D09DF8E6
:101C800008302F2B4FF000030ED8012202A9009339
:101C900001923846FFF7EAFD013E0446013D0DF191
:101CA000090103E002A901E002A91C46CDF8008069
:101CB000019638462A464B46FFF7D8FD20440BB024
:101CC000BDE8F0832DE9F04F804689B091460024AD
:101CD0000B461D4613F8012B4AB98D420AD96E1ADC
:101CE00098E80900324698473444294602E0252AFC
:101CF000EFD1F2E70B78002B00F01F8101314FF09C
:101D0000200B00270A4611F8013BABB12D2B02D165
:101D100047F00107F6E72B2B02D147F00207F1E766
:101D2000202B02D147F00407ECE7212B02D147F02A
:101D30000807E7E7302B02D04FF0000A03E047F036
:101D400040079B46DEE7134612F8011BA1F1300065
:101D5000092805D80A2303FB0A1AAAF1300AF2E778
:101D60002E291E461CD15A782A2A02D0013300227D
:101D700007E0D9F80020023609F1040522EAE272F0
:101D800011E01878A0F1300109291E4603F1010382
:101D900004D80A2101FB0202303AF2E74D4602E084
:101DA0004D464FF0FF3233786C2B08BF0136337845
:101DB000002B00F0C280642B7AD013D8502B00F097
:101DC000838005D8A3F14501022940F28B80A2E06F
:101DD000622B17D029D8582B40F09D8005F10409BB
:101DE000412374E0712B2DD004D8672B7AD9702B46
:101DF0006AD090E0752B50D0782B65D0732B40F0D3
:101E00008A8031E02B68CDF800B005F10409CDF8E7
:101E100004A0404613B14B49042201E04A4905227F
:101E20003B46FFF723FD044485E008A92B6801F831
:101E3000043D05F10409CDF800B0CDF804A04046FA
:101E40000122EDE707A928680492FFF71EFB049A18
:101E5000CDF800B00146501C05F1040908BF079AEF
:101E6000CDF804A04046DBE705F104092D6865B113
:101E7000531C03D1284621F0FBF80246CDF800B0F0
:101E8000CDF804A040462946CAE7CDF800B0CDF809
:101E900004A040462D490622C2E761238DE8880848
:101EA000CDF80CA005F1040940462968002209E09C
:101EB00061238DE88808CDF80CA0296805F1040994
:101EC000404601220A230AE005F1040961238DE856
:101ED0008808CDF80CA02968404600221023FFF79F
:101EE00025FDA0E7073525F00705D5E90001059395
:101EF00004922AF053FC059B049A019200EE100A0A
:101F00001946CDF800A040463A465B4605F108095F
:101F1000FFF786FE87E7252B06D00D480D4A0E4BAE
:101F200040F221211CF03AFD98E8090031460122D7
:101F300098470134A946711CCAE6204609B0BDE89D
:101F4000F08F00BF34F7020039F702003FF70200BC
:101F500046F702001EF7020056F702000EB403B562
:101F600003AA52F8041B0192FFF7ACFE02B05DF821
:101F700004EB03B0704703781A0613D503F07F0310
:101F800040221A4203D023EA02035208F9E710F86C
:101F9000012F02F0C001802904D102F03F0242EA81
:101FA0008313F4E718467047421C10460132037849
:101FB00003F0C003802BF8D070470023814207D97B
:101FC00011F8012D02F0C002802A18BF0133F5E795
:101FD000184670470144034600208B421A4608D237
:101FE000127802F0C002802A03F1010318BF013009
:101FF000F3E770477F289DBF024B185CC0F3400099
:10200000002070479FF702007F289DBF024B185C9D
:10201000C0F3C000002070479FF702007F289DBFDB
:10202000024B185CC0F38000002070479FF702004D
:102030007F289DBF024B185CC0F3801000207047C2
:102040009FF702007F2809D8064B1B5C13F00C0F8A
:1020500006D1A0F15F0358425841704700207047F5
:10206000012070479FF702007F289DBF024B185C3C
:10207000C0F30010002070479FF702007F289DBF2B
:10208000024B185CC0F34010002070479FF702001D
:1020900010B50446FFF7E8FF10B104F1200010BDB1
:1020A000204610BD10B50446FFF7E8FF10B1A4F1BB
:1020B000200010BD204610BD3038092884BF20F014
:1020C000200007387047F0B51C0994421AD2121B41
:1020D00001EB4401154606466DB131F8024B012D66
:1020E00084BF0F8844EA074403F00F07FC4026F83A
:1020F000024B013DF0E700EB420030F8023C1BB917
:10210000501EF0BD0020F0BD1046F0BDF0B5059F9B
:102110000024D21B2546BC420AD031F814E033F823
:1021200014607644354420F814502D0C0134F2E745
:1021300064000619023C2144374614463CB131F88C
:10214000023F1D4427F8025B013C2D0CF6E706EB2D
:1021500042031DB1012126F812100233181A401053
:10216000F0BDF0B5059F0024D21B2546BC420AD025
:1021700031F81460354433F81460AD1B20F8145066
:102180002D140134F2E764000319023C2144164681
:102190001F463EB131F8024F254427F8025B013E4D
:1021A0002D14F6E703EB4202023A8242134603D3B0
:1021B0001988023A0029F8D00233181A4010F0BDED
:1021C000023981420B4603D31A880239002AF8D01B
:1021D0000233181A401070472DE9F0439E4608ABB1
:1021E00093E82802DDF81C80561E02398446741CD0
:1021F00022D031F8027FC2EB0804344407F57F4750
:10220000B44207F1FF072F449DBFBEF8005005F50B
:102210007F44FF344FF6FF744C4484EA070513FAF9
:1022200085F32CF8023B98BF0EF1020E4FEA1449D9
:102230003D0C1B0C013EDAE700EB420113B120F824
:1022400012300231BDE8F043FFF7BABF10B50446C3
:1022500038B18068FEF758F92046BDE81040FEF717
:1022600053B910BD38B505460C20FEF715F92A788C
:10227000037862F300036FF3410304460370286898
:102280002368C0F39D0060F39F0323606B68636065
:10229000AB680BB9A3600AE04000FEF7FDF8A06050
:1022A0002A68A968C2F39D02520020F06AFE204607
:1022B00038BD10B54B0018441A4449B130F8023DFE
:1022C00032F8024D1B1B002B04DB06D10139F4E769
:1022D000084610BD4FF0FF3010BD012010BDFFFFBC
:1022E00038B50446806801298CBF0D46022518B117
:1022F0002368B5EB930F11D923789B0706D50848BF
:10230000084A094B40F2D7211CF048FB6900FEF750
:10231000ECF82368A06065F39F03236038BD00BF1D
:102320002FF8020076F802003BF8020038B50546A7
:102330000C460221FFF7D4FF2B78002CB5BF43F0E9
:1023400001036FF300032B702B704FF00003B4BF39
:10235000614221466B6039B16B68AA68581C68609D
:1023600022F81310090CF6E738BD037803F0FE03DA
:102370006FF34103037003686FF39F03036000234F
:1023800043608360704728B103789B0702D480685C
:10239000FEF7BAB8704738B505460C464968FFF7EE
:1023A0009FFF22782B78A868A16862F300032B7046
:1023B00063686B606268BDE83840520020F0E1BDA0
:1023C000034609B959607047FFF7B0BF38B50546F5
:1023D0000C46FFF7CAFF28462146BDE83840FFF704
:1023E000EFBF30B50578816005F0FE0545F00205C8
:1023F0000570056862F39F0500220560426019467A
:10240000BDE83040FFF7DCBF70B504210646144636
:102410001D46FFF765FF9DF81020337852B1002C60
:1024200075F1000206DA43F001036242337065EB96
:10243000450304E06FF30003337022462B4600216E
:10244000716052EA03010CD07168B0684C1C746072
:1024500020F81120110C41EA0341180C0A460346EA
:10246000EFE770BD2DE9F04110EE105A0378EA0F46
:1024700062F300030370C5F30F4313F4FF43804678
:1024800004D10023C8F80430BDE8F081B3F5FF4F54
:10249000F7D0C5F3C753A3F17F06002EF1DB04D1BB
:1024A0000121BDE8F041FFF741BF162ED8BF00263D
:1024B000C5F31605A3F16F074FF01004D8BFC3F1A1
:1024C000960397FBF4F7C8BF093645F40005D8BF5B
:1024D00034463946C9BF963BDD4006F00F0693FBF4
:1024E000F4F4FFF7FDFEC8F804702CB1D8F808002A
:1024F0000021620020F088FD4EB1D8F8083005FABE
:1025000006F2C6F1100623F81420F54001346400E9
:102510007F00BC4205D0D8F808301D532D0C023482
:10252000F7E7BDE8F081FFFF2DE9F041069E232E7D
:1025300004460D46984606D92748284A284B40F2BB
:102540006A311CF02BFA8F18C2F35B010131FFF7DF
:10255000C7FE2278B8F1000F02D042F0010201E07C
:1025600068F300020023227063602946B9420846DE
:102570002ED20278A2F13003092B01F101010CD90E
:10258000A2F14103192B02D8A2F1370305E0A2F111
:102590006103192B1CD8A2F15703B34218D2A068CB
:1025A000D4F804E08446724642B1BCF8008006FBD1
:1025B00008332CF8023B013A1B0CF5E700EB4E0206
:1025C00013B120F81E300232121A52106260CDE7A9
:1025D000401BBDE8F08100BF2FF8020065F8020043
:1025E00049F802004068B0FA80F04009704738B5F9
:1025F00044680CB94B68CBB10B78057803F0010344
:1026000005F001029B1A11D14B6880688A689C42D0
:1026100004D306D82146FFF74CFE03E04FF0FF300D
:1026200000E00120EB0702D5404238BD184638BD16
:10263000884210B5044601D0FFF7ADFE23786FF352
:102640000003237010BD884210B5044601D0FFF787
:10265000A2FE2378C3F30002C2F1010262F3000379
:10266000237010BD88421FB5044601D0FFF793FECA
:10267000626842B920460121FFF732FEA2680123B9
:102680001380636021E02378D9070ED56FF3000330
:10269000A06823700123ADF80E30009301460DF1C0
:1026A0000E03FFF75EFD606013E0511C2046FFF74C
:1026B00017FEA06862680123ADF80E300093014652
:1026C0000DF10E03FFF722FD6060237843F0010354
:1026D000237004B010BD2DE9F84F0F464968064637
:1026E000144601B12AB930463946BDE8F84FFFF724
:1026F00052BE02F10F052D092944FFF7F1FD79685B
:10270000B368B86805EB010814F00F0208F1004443
:1027100004F1FF3401F1004E6FF0010C4FEA440464
:102720000EF1FF3E0CFB01FC0CEB4E0E23447044FB
:1027300008BF102299464FF0000EC2F1100A59B19D
:1027400030F811B04BEA0E0E2EFA0AFA29F802A957
:102750004FEA0E4E0139F0E72EFA0AFE03EB0C09A0
:1027600023F80CE06B00C3F1020305F10042994429
:10277000013A4846520020F047FC02344C44B8F17C
:10278000000F05D034F8023D13B908F1FF38F6E721
:10279000C6F804803A78337862F300033370BDE8FA
:1027A000F88FF0B50D46496885B00446164601B16C
:1027B00022B920462946FFF7EEFD44E0FFF790FDE1
:1027C000A9686A68A0683346FFF77DFC60602978D5
:1027D000237861F300032370DB07024633D500231F
:1027E0006868ADF80E30310983420DD08B420BD0B2
:1027F000AF6837F813702FB101238142ADF80E3066
:1028000004D313E00133EFE781421CD2AB6806F03A
:102810000F0633F81100012101FA06F3013B1842BB
:1028200018BFADF80E10BDF80E3063B10123A068DB
:1028300012B90380636006E0009301460DF10E03B8
:10284000FFF764FC606005B0F0BD73B51546064641
:102850000C4688686B6849689268994204D306D828
:10286000FFF727FD002802DA23462C461D462A786A
:1028700023785340DB070DD4616830460131FFF700
:102880002FFD6B680093B068A1686268AB68FFF7C2
:102890003DFC0BE030466168FFF722FD6B6800935A
:1028A000B068A1686268AB68FFF75BFC7060227873
:1028B000337862F30003337002B070BDF7B515468C
:1028C00006460C4688686B6849689268994204D34A
:1028D00008D8FFF7EEFC002804DA234601272C462F
:1028E0001D4600E000272A7823785340DB070DD5EA
:1028F000616830460131FFF7F3FC6B680093B06804
:10290000A1686268AB68FFF701FC0BE030466168C4
:10291000FFF7E6FC6B680093B068A1686268AB687B
:10292000FFF71FFC7060227833781FB1C2F30002FA
:10293000C2F1010262F30003337003B0F0BD2DE970
:10294000F04F16464A6873689A420C463EBF3446BA
:102950000B461E462378DA0785B0054621D4317828
:1029600011F001071DD16168FFF7BAFCA868A468DF
:10297000D6F808E072683946914208D03EF81160F6
:1029800034F81130334020F811300131F4E700EB16
:102990004101FFF715FC2B7868606FF300032B7083
:1029A00065E0616828460131FFF79AFC22783178AA
:1029B0007368019381EA020303F0010383F00103CA
:1029C0005F42BFB202F00102A868D4F804E00093AD
:1029D00001F001010397A368D6F808805742BFB2FF
:1029E000C1F1000C02971FFA8CFC0EF1FF37A3F126
:1029F000020982467B1C26D039F802BF029B8BEA73
:102A0000030B019B5A44CEEB030BBB44BB4598BF61
:102A1000B8F800B0039B94BF8CEA0B0BE346594413
:102A200001EA020B8BEA030B009B13FA8BF32AF8E3
:102A3000023B4FEA134398BF08F10208090C120C3D
:102A40000093013FD6E7009B00EB4E011BB1012331
:102A500020F81E300231FFF7B3FB6860237832782C
:102A6000C3F3000313402A7863F300022A7005B011
:102A7000BDE8F08F2DE9F84F17464A687B689A4207
:102A80000D463EBF3D460B461F462B78DB070646EC
:102A900032D43B7813F001042ED16968FFF720FC93
:102AA000D7F808C06A687F68D6F808E0A968D01B24
:102AB0002346BB4208D03CF8134031F81320224390
:102AC0002EF813200133F4E75B000EEB0302023B08
:102AD0000B441446014629B133F8025F24F8025B27
:102AE0000139F8E702EB4002CEEB020233785210D4
:102AF000726061F300034DE0696830460131FFF711
:102B0000EFFB2B783C78D5F804E0B068AD68D7F8D7
:102B100008C0D7F8048003F0010304F00104C3F1F6
:102B2000000967421FFA89F9BFB20EF1FF31023D79
:102B300082460122B1F1FF3F1FD035F802BF8BEA78
:102B4000090B5B44CEEB080B8B448B4596BFBCF85E
:102B500000B0BB4687EA0B0B5C4444EA030B6FEA08
:102B60000B0B12FA8BF22AF8022B98BF0CF1020C15
:102B7000240C1B0C120C0139DCE700EB4E011AB1DE
:102B8000012320F81E300231FFF71AFB3378706002
:102B900043F001033370BDE8F88FF0B516464A687C
:102BA00073689A4238BF0B460C463CBF34461E46FB
:102BB000237837785F4017F0010785B0054639D193
:102BC0006168FFF78DFB2378716813F0010322D150
:102BD0006268A868A768B668521A8B4209D036F8AE
:102BE00013E037F813408EEA040420F81340013351
:102BF000F3E75B00C118023B3B4414460E462CB180
:102C000033F8027F26F8027B013CF8E701EB420132
:102C1000FFF7D6FA09E08DE8820002970397A868CB
:102C2000A1686268B368FFF7D7FA2B7868606FF322
:102C300000031DE061680131FFF752FB73680093E8
:102C4000012301932378A86803F0010383F00103B3
:102C50000293337803F0010383F001030393B36815
:102C6000A1686268FFF7B8FA2B78686043F0010347
:102C70002B7005B0F0BD2DE9F04F4B6885B00446D0
:102C80000E4615460BB1536823B90023636005B0A7
:102C9000BDE8F08F814206D1FFF7E4FAB54207465E
:102CA00008D1054606E0824206D1FFF7DBFA054669
:102CB000074602E03E4600E0002773686968204648
:102CC0001944FFF70DFB2268A068C2F39D020021A2
:102CD000520020F099F9B368D6F804E0D4F808A0BF
:102CE00002936FF0010303FB0EF3D5F808806A68C6
:102CF00003930AEB4E010020039B01EB030C2AB364
:102D0000029BCDF804E0A3F102090023019878B1F9
:102D1000B8F8000039F802BF0BFB0033BCF800B074
:102D200001985B4401382CF8023B01901B0CEDE745
:102D3000084601F1020C0BB10B806046CAEB0000A3
:102D40004010013A08F102086146D5E76060297831
:102D500033784B4013F0010F237838460CBF62F3F1
:102D6000000343F00103237005B0BDE8F04FFFF707
:102D70006DBA4B6870B50646144613B11378DA077E
:102D800002D50023736070BD636823B90121BDE8DB
:102D90007040FFF7CBBA0846FFF764FA05462046B5
:102DA000FFF760FA012104463046FFF7BFFA636877
:102DB00083B1A3681B88DB0704D5304631462A4619
:102DC000FFF759FFA068626801460123FFF77BF90E
:102DD000606038B92846FFF739FA2046BDE87040F0
:102DE000FFF734BA284629462A46FFF744FFDEE7B4
:102DF0002DE9F04F9A4691B05B68039205460C4668
:102E000033B9AD48AD4AAE4B40F2D1511BF0C6FDCF
:102E1000039B59680131FFF763FA039BA8685A685E
:102E200001325200002120F0EFF800236B60039B79
:102E3000596820460131FFF753FA20460399FFF7FE
:102E4000AAFADAF808300193DAF804300293AB6892
:102E50000493D4F80480029BA66898450DD30FD83C
:102E600030464146019AFFF724FA002804D1049A1B
:102E700060600123138001E002DA00236B60FBE055
:102E8000029B03F100400138019B33F810304FEAF8
:102E9000400B00211F048AB201F1010102D45B0042
:102EA0009BB2F7E74FEA48034FF0000E08F101012B
:102EB00003F1020926F818E0B1446160B446CC453C
:102EC0000ED2BCF8008008FA02F747EA0E0E2CF882
:102ED00002EBC2F1100E28FA0EF81FFA88FEEEE798
:102EE000019F37F8100090400590029801280AD9F8
:102EF00038465844059F30F8020CC2F1100E20FAF3
:102F00000EF0074305970298091A6960049801F1C9
:102F10000041013900EB410108910BF102010A91D6
:102F200033446168029809938142069176D933F857
:102F3000021CB3F800B041EA0B4B0599BBFBF1FB57
:102F40000A99C1EB030E0199CDF82CE002390791E3
:102F50000F46002188469E4525D237F8020F3EF8DD
:102F6000029B904040EA18481FFA88F000FB0BF0E3
:102F7000484503D2C0EB090C8C450ED80144C9EB7F
:102F80000109C9F100012EF8021C1FFA89F1003174
:102F900018BF012101EB1941DDE7C1EB0C012EF84F
:102FA000021C0021D7E733F80209814209D3091A2C
:102FB0004842588088B2003018BF012000EB114110
:102FC0000BE0411A5980002107E0B3F802E0704499
:102FD0005880A1EB10410BF1FF3BB9B10020DDF8A7
:102FE0001C90DDF82CE08046099FBE45EDD239F8F3
:102FF00002CF0CFA02FC4CEA1848BEF800C010FAE6
:1030000088F060442EF8020B000CEDE7089921F8D7
:1030100002B9089106990139616082E701F1004324
:10302000013B06EB43030021B34216D3B3F800E0A3
:103030004EFA02F00843C2F110010EFA01FE23F825
:1030400002091FFA8EF1EFE703F10042013A0499F9
:1030500031F812206AB9013B6B606B68002BF3D129
:1030600007E003F10042013A36F8122022B9013B91
:1030700063606368002BF4D1039B9AF800201B78EF
:103080005340DB0714D52B7843F001032B706368A2
:1030900073B10DA84FF0FF31FFF798F92846294684
:1030A0000DAAFFF7D2FB204621465246FFF7CDFB83
:1030B00011B0BDE8F08F00BF2FF802001FF802002A
:1030C00053F8020010B581684268002301EB420208
:1030D000914204D232F8024D44EA0343F8E7027801
:1030E000D20748BF5B42184610BD30B542688468BD
:1030F000002304EB4202944207D2B3F5004F0BD2F7
:1031000032F8025D45EA0343F5E70278D20748BF8B
:103110005B420B60012030BD002030BD2DE9F04343
:10312000904609B19D1800E01D468468426800265B
:10313000A4F1020E4FF00109374642B33EF8024FA8
:10314000103744EA0646072F1FDD90F800C0B4B2DE
:103150001CF0010F1FBFE44359FA84F4A4B24FEAF4
:10316000142939B105F1FF3C9C4505F8014C08D103
:10317000BDE8F08305F1010C2C7003EB0804A445B5
:1031800005D0083F360A6546DDE7013AD5E7BDE8D8
:10319000F083FFFF826843689FED0C0A02EB430354
:1031A0009A420CD233F8021D9FED097A07EE901A6D
:1031B000F8EEE77AE0EE077AB0EE670AF0E7037818
:1031C000DB0748BFB1EE400A704700BF00000000B7
:1031D000000080472DE9F84F0B9E9DF828A08046FF
:1031E000894615469B4616B18B1E1E2B03D900201F
:1031F0003070BDE8F88F47688FB93AB1551E304638
:1032000015F8013F1BB100F8013BF9E730463023C8
:103210000370002300F8013F801BBDE8F88F7F009A
:103220003846FDF739F9D8F808103A461FF0A9FEDC
:103230003146844633460CEB0700841E0022644569
:103240000AD3B4F800E04EEA0242B2FBF9FE24F8D9
:1032500002E909FB1E22F2E73032392A84BFABF1C2
:103260003A0412191A705C1C62468242964606D2D3
:10327000BEF800E00232BEF1000FF6D004E0BAF171
:10328000000F0FD0012203E0BAF1000F08D0002296
:10329000601A032802BF9C1C83F801A021460AB9CA
:1032A0002346C8E76046FDF72FF965B128461FF0B1
:1032B000DFFE23462844A8421C4604D910F8012DFD
:1032C00003F8012BF7E798F80030DB0742BF2D2306
:1032D00023700134631E32469A4206D21178187860
:1032E00002F8010B03F80119F6E700232370A01B75
:1032F000BDE8F88F0369591C10B504462DD00A2B80
:1033000004D1C3690133C361012306E0092B036AB9
:1033100004BF073323F0070301332362636923618A
:10332000A36963616068A36898472369A0610D2B56
:1033300009D10A23236163690A2B04D16061A36860
:1033400060689847A061A369013306D163695A1C7C
:1033500003D00A2B1CBF0A23A36110BD2DE9F84F2F
:10336000002604460F4686642069411C17D00A28AF
:1033700004D12046FFF7BEFF0126F5E7FEF73AFE2F
:10338000F8B92369232B08D12046FFF7B3FF23693F
:10339000581CE9D00A2BF7D1E6E75C2B05D0E3698E
:1033A000256AA363E56387B915E02046FFF7A2FF0E
:1033B00023690A2B05D0E369A363236AE36304232B
:1033C000C4E12046FFF796FFCEE7012B03D1012D84
:1033D00001D0062346E0636A002B03DA072284F853
:1033E00040202CE005D0062284F84020013B636297
:1033F00089E1002E39D0A36A002B36D1226B606B95
:10340000052384F8403002F10043013B013D30F8D0
:1034100013309D4200F0778113D9E16A8A4207D3C5
:1034200008314900FDF761F8E36A60630833E3623D
:10343000236B626B591C216322F81350636A0133BA
:10344000D5E7236B03F10042013A30F81220954290
:1034500005D2013B2363636A013B6362F1E700F03D
:103460005281022384F840304DE12069421C01D191
:103470000023F7E7272800F06382222800F060820B
:10348000752803D020F01003622B04D16369272B29
:1034900010D0222B0ED0722802D16369622B03E078
:1034A000622826D16369722B23D1A369272B01D00F
:1034B000222B1ED1752803D12046FFF71BFF3FE2C8
:1034C00062280BD12046FFF715FF2369722B40F0CD
:1034D00046812046FFF70EFF012641E1722840F0A9
:1034E0002F822046FFF706FF2369622BF1D00126C9
:1034F00027E2FEF789FD216918B95F2901D07F29EC
:103500001FD9082304F1440584F840302846C9B285
:10351000FEF7F2F82046FFF7EDFE2069411C00F0AF
:10352000F280FEF771FD10B12846217CF0E720699A
:103530005F28F9D07F28F7D8FEF770FD0028F3D177
:10354000E1E00846FEF76AFD30B121692E290CD171
:103550000A2384F840301BE023692E2B52D1606986
:10356000FEF75CFD0028F0D14CE00923302984F8F7
:1035700040300DD1656945F02005622D06D06F2DD4
:1035800004D0A5F178025542554102E0012500E042
:10359000002504F144063046FEF7B6F82046FFF752
:1035A000A9FE2069431C00F0AE809DB920F02003E5
:1035B000452B0FD10A23652184F840303046FEF7B1
:1035C000A3F82046FFF796FE21692B29E3D02D2989
:1035D000E7D1E0E7FEF718FD18B121692E2909D1DE
:1035E0000CE02069FEF71AFD0028F6D123692E2B86
:1035F000F3D088E021F020034A2BCCD10A2384F8B1
:103600004030C8E721692E291FD104F14406304615
:10361000FEF77AF82046FFF76DFE23692E2B40F067
:103620009C8165692E2D40F0988130462946FEF731
:103630006BF829463046FEF767F82046FFF75AFE3A
:103640002046FFF757FE0D230CE7B84D00262F78D4
:1036500077B1B9420CD0652F05F1010304D0632F77
:1036600002D0452F01D1013E1D4601360135EEE75E
:103670002046FFF73FFE0FB90123F3E60135374639
:103680002B78652B0DD16B7822699A4207F10107DF
:1036900005D120460135FFF72DFE3E4601E00235FB
:1036A000EEE72B78452B0AD16B7822699A4204D138
:1036B0002046FFF71FFE3E460FE001230FE0632B7D
:1036C0000BD16B7822699A4207F1010705D1204698
:1036D000FFF710FE02353E46D2E7954B9B5D84F81E
:1036E000403094F8403003F0FD02442A01D0482BCA
:1036F00002D1A36A013305E0452A01D0492B02D14A
:10370000A36A013BA36294F84030082B40F0298162
:10371000E06CA56C0023874A52F823200021A942BF
:10372000164607D03778465CB74202F1010211D144
:103730000131F4E712786AB9232B40F010817E4BF7
:10374000D3F8DC30002B0CBF10230E2384F840305C
:10375000BDE8F88F0133242BDDD1BDE8F88F0026BA
:103760000C2384F840304FF0010923692046222BB6
:1037700014BF4FF0270A4FF0220AFFF7BBFD236961
:1037800053450BD16369534508D12046FFF7B2FD7D
:103790002046FFF7AFFD4FF0030801E04FF00108AE
:1037A00000252769781C00F0B680B8F1010F02D11E
:1037B0000A2F00F0B080454580F0B280574506D111
:1037C00004F1440051460135FDF79EFF9FE05C2F58
:1037D00040F097802046FFF78DFD25691EB104F16A
:1037E000440039466BE0622D00F0B58010D84E2DB4
:1037F0004BD005D8222D66D0272D64D00A2D18E095
:103800005C2D60D0612D00F0A480552D40D11AE0D0
:10381000742D10D007D86E2D0FD0722D11D0662DBB
:1038200036D10C2552E0762D09D00CD3782D18D046
:103830006B1C6BD02CE0092548E00A2546E00B25DF
:1038400044E00D2542E0B9F1000F05D004F1440039
:103850005C21FDF759FF39E0752D0CBF04270827BF
:1038600000E00227002517F1FF372AD32046FFF793
:1038700041FDD4F810B05846FEF7DAFB90B3584635
:10388000FEF71AFC2D010544EDE72C480BF0E6F994
:10389000A5F13003072B0FD81D4603276369303B82
:1038A000072B0ED8013F0CD02046FFF723FD2369DC
:1038B000303B03EBC505F1E704F144005C21FDF763
:1038C00023FF6F1C22D0B5F5881F16D2B9F1000F67
:1038D00005D104F144002946FDF716FF16E0FF2D3F
:1038E00007D90AE0012384F84030B9F1000F2ED047
:1038F000054604F14400E9B206E0012384F84030B3
:1039000004E004F14400F9B2FDF7F6FE002520467C
:10391000FFF7F0FC45E745453CBF032384F8403002
:1039200004F144002946FDF764FFECE640F902008B
:1039300083F80200B0F802007410FF1F82F9020041
:1039400000260B2384F840304FF000090DE74D4668
:10395000BFE70725BAE70825B8E74C2382E50E3311
:10396000F4E6BDE8F88F00BF10B5044678B1C3682F
:103970000BB14068984704F14400FDF767FE606BA7
:10398000FCF7C2FD2046BDE81040FCF7BDBD10BDF0
:103990002DE9F843064654200F4690461D46FCF795
:1039A00088FD044620B9002D48D03846A84742E09B
:1039B000012380E8C0014FF000090A26C560C361F9
:1039C00003620363C0F82490C0F82890C6621420F4
:1039D000FCF76FFD2021606304F14400FDF708FE51
:1039E000656B1DB92046FFF7BFFF27E0A5F80090E3
:1039F0003846C04720613846C04760613846C047F6
:103A00002269A061551C04D06369591C06D10D2A96
:103A100001D126610BE00A2A04D108E0013006D169
:103A20000D2B01D1666102E00A2B18BFA66120466A
:103A30000121FFF793FC2046BDE8F8832846BDE846
:103A4000F8830021FFF78ABC8368C26893423DBFB8
:103A50005A1C826018784FF0FF307047036810B529
:103A6000044613B14068FCF74FFD2046BDE8104006
:103A7000FCF74ABD2DE9F041074610200E461546D9
:103A80001C46FCF716FD014658B1354480E850004D
:103A90008660C560044A054B3846BDE8F041FFF733
:103AA00077BFBDE8F08100BF493A00005D3A0000F1
:103AB000F8B5846A06460D46DCB194E80A002B444A
:103AC0008B4223D90831002220462944FCF71AFDF5
:103AD000024650B9616820460831FCF713FD63685F
:103AE0002360736A6360746203E023682B4423607D
:103AF0000CE0802D2F4638BF802707F10800FCF727
:103B0000CBFC0023076043600446B0626068054454
:103B1000656008302044F8BD70B50D460C2106469E
:103B20001446FFF7C5FF10B90123337070BD40F292
:103B3000B31305604360846070BDFFFF08B5037870
:103B40008BB943698B4206D80848094A094B40F2B1
:103B50005B111AF023FF03F18043013B5B1A82697A
:103B600052F8230008BD002008BD00BF0A00030072
:103B7000A0FE02001800030008B5037873B943697A
:103B800033B90748074A084B40F253111AF006FFB1
:103B9000013B8269436152F8230008BD002008BD43
:103BA0000A00030070FA02003700030038B50378FA
:103BB00004460D46BBB9016943698B420DD31031F0
:103BC000806989000122FCF79DFC10B90123237054
:103BD00038BD2369A061103323616369A269591C50
:103BE000616142F8235038BDF8B51D46037804469C
:103BF0000F46164603BB416883688B420DD31031D4
:103C0000C068C9000122FCF77DFC10B901232370B4
:103C1000F8BD6268E06010326260A268E168531C1F
:103C2000A36051F8320067F3170041F8320001EB4E
:103C3000C2033278DA705D60F8BDFFFF01F46043C3
:103C4000B3F5005F10B504D00C480D4A0D4BD821D8
:103C500007E0C1F30B03AF2B05D90848084A0A4B0C
:103C6000DA211AF09BFEC269916B084ABDE8104048
:103C700052F823200023FFF7B7BF00BF0A0003005C
:103C8000B6FB020054000300B3000300E0FB020097
:103C9000012806BF480040F0010040EA01107047CB
:103CA0002DE9F347C4690E4694F8401008290546EB
:103CB00018D1E06CA16CFDF71FFB3378802B044614
:103CC0000CD1810041F0020105F12C0000220BF023
:103CD00047F918B1416841F0010163E0210141F069
:103CE00002015FE009290BD100222346E06CA16CA0
:103CF00009F004FBC30702460CD540F0010151E076
:103D00000A290CD100940122E06CA16C002309F077
:103D100083FB02462846A16BFFF7FEFE17E0A1F1E8
:103D20000B03012B3BD8A16CE06C0A2902D8FDF7EC
:103D3000E3FA01E0FDF7ACFA064694F8403040B1F2
:103D40000B2B0CBF06200A203146FFF7A1FF0146CE
:103D500028E00B2B28464FF01001D4F838A0D4F8F7
:103D60004C90A76C0CBF4FF0B1084FF0B208FFF7B2
:103D70009FFE044618B901232B70314612E048F427
:103D800000734360C0F800A03846FCF785FB494645
:103D90003A461FF0F6F8E760A060214602E009010C
:103DA00041F00E01284602B0BDE8F047FFF7FEBE25
:103DB00010F0010203D040F00100086013E0B8B138
:103DC00010F0030311D10279B32A10D183680B607C
:103DD00013F0010007D19A070AD11B6805481B1A86
:103DE00058425841704701207047104670471846A6
:103DF000704700BF084D03002DE9FF471678832E5A
:103E00000446884617461D460AD10021FFF796FE54
:103E100030B1830740F083810379872B40F07F81A5
:103E2000A6F16E03022B2BD8691E2046FFF786FEF3
:103E300001A9FFF7BDFF002800F053813B786E2BEE
:103E400006D06F2B0CBF4FF001094FF0020901E0C3
:103E50004FF00009AE1E002EC0F2308131462046E0
:103E6000FFF76CFE02A9FFF7A3FF002800F03981DD
:103E700048460199029A0AF041F9013E0190EAE7A9
:103E800006F0FD03712B01D0752E3CD1691E204632
:103E9000FFF754FE01A9FFF78BFF002800F02181F6
:103EA000AE1E002E40F30A81711E2046FFF746FE2B
:103EB00002A9FFF77DFF002800F01381204631465C
:103EC000FFF73CFE974BC0F30710184410F8319CE5
:103ED000B9F1FF0F00F0058102980EF0EDFBB9F18A
:103EE000040F02D8002806DAFBE0B9F1070F02D967
:103EF000002800F0F68048460199029A0AF0FEF880
:103F0000023E0190CDE7782E25D100212046FFF713
:103F100015FE01A9FFF74CFF002800F0E2802046C3
:103F20000121FFF70BFEC0F30710312809D032281A
:103F300009D03F2809D07C487C4A7D4B40F22E2195
:103F40005DE0032002E0042000E00520019909F073
:103F500073FE0190B2E0202E72D120460021FFF7BF
:103F6000EDFD0646002800F0BC8010F0030904D1E6
:103F70000379223B012B40F2B48020460121FFF758
:103F8000DDFD00F00F03022B40F0AB80B9F1000F14
:103F900040F0A78033797D2B40F0A380B36803F015
:103FA0000F02022A40F09D8040F2B111B1EB131FC5
:103FB00040F09780F368002B00F09380990740F061
:103FC000908019798D2940F08C80D3F808A01AF0E0
:103FD000010F4FEA101601D1227082E0B10004F106
:103FE0002C0041F0020101220AF0BAFF43684FEAB7
:103FF0006A0933B14C484D4A4E4B4FF414711AF0D4
:10400000CDFC4FEA490949F0010343603046FDF712
:1040100037FA03785F2B20460BD1FFF7ADFD204622
:10402000FFF7AAFD00212046434A0B46FFF7E4FEB6
:1040300075E0FFF7A1FD20465146FFF7B7FD50E0C0
:104040007D2E4ED101212046FFF778FD0021064646
:104050002046FFF773FD06F00F03022B41D1002825
:104060003FD083073DD103798F2B3AD1816801F08E
:104070000F03022B05D02C482C4A304B40F2722102
:10408000BDE74FEA1119310989002D4841F00201BD
:1040900000220AF065FF20B34068494602AA09F0F1
:1040A000F1FE029BEBB1D90705D49A0719D1196823
:1040B000244A914215D1039A9AB9019325B1204619
:1040C000FFF75AFD013DF9E7019AD307204602D5D3
:1040D00042F0010121E02946FFF71EFD014620467E
:1040E0001BE0AE1CB60020463146FFF7E1FC8146DE
:1040F00010B90123237012E0C0F800803B7843EA36
:1041000005234360064435B12046FFF735FD013DE8
:1041100046F8040DF7E720464946FFF747FD04B08F
:10412000BDE8F087E0FE02000A000300CC030300B4
:10413000D4000300ED000300520403000801030053
:1041400030FB0200084D0300036830B513B913605B
:10415000184630BD9C0702D01060012030BD5C685D
:10416000E5B28D42F8D103F108011160200A30BD9B
:104170002DE9F04F93B00024402301904FF40070DC
:104180000E46924605938DF810400694FCF791F97F
:1041900020230790802008930994FCF78AF9214690
:1041A0000A900FA80B960D940E940AF091FE079BAF
:1041B000002B00F0D5810A9B002B00F0D181BAF1D1
:1041C000000F05D0BAF1020F0CBF0423012300E059
:1041D00053469F4CB16B54F8232004A80023FFF7EB
:1041E00003FD00270294069B002B00F09A819DF8A6
:1041F0001010002940F09581079A029D013B02EBC7
:10420000C3000693C47852F8333055F824504468FC
:1042100095F801B00BF03002202AC3F317080BF019
:104220000F0940D0302A00F0FE80102A40F0738140
:1042300014B10FB90027D6E705EB44024C4530D244
:1042400032F8023F03F47041B1F5805F0DD196F86A
:104250004010C3F30B0399421FD104A82946FFF76E
:104260001FFD3046FFF7EDFBE4E7B1F5005F05D039
:104270007848794A794B4FF442711BE0631C4B45F7
:1042800004D204A841462A46FFF7AEFC05EB4404DD
:1042900004A86188FFF7D2FCCCE70134CEE7012CFB
:1042A00037D801279FE78FB134B96A486A4A6C4B07
:1042B00040F217311AF072FB35F8143003F47043F2
:1042C000B3F5405FEBD104A8FFF770FC05EB4407A2
:1042D00009E0082A03D104A82946FFF7E1FC30468B
:1042E000FFF7AFFB01344C4524D237F8023F03F40B
:1042F0007042B2F5005F14D0B2F5405F11D0B2F554
:10430000805F13D196F84020DBB29A42E1D0002CB6
:10431000C7D096F84030062B40F02F8151485249C3
:1043200031E104A841462A46631CADE7494840F202
:104330004731F3E005D04748474A4C4B4FF453719F
:10434000B8E7BAF1000F07D02B78202B04D104A8CE
:104350000021FFF7F3FB20B1002705EB440BB94622
:1043600032E004A80121FFF7E9FB870704D000F041
:104370000F00022805D1EFE70028EDD00379B12B1B
:10438000EAD104A8FFF7F8FB04A8FFF7F5FB38B162
:10439000810705D10379B12B02D18068FCF7B4F80D
:1043A00004A84146324A0023B2E03BF8023903F444
:1043B0007041B1F5805F04F1FF3408D1DBB2082B06
:1043C00002D1013709F10109002CEED108E004A85F
:1043D0003946FFF7B3FB08B109F101090137F3E7EB
:1043E000B9F1010F3B4611D16A7852060ED5254628
:1043F000BC4204A806D0FFF7BFFB0134002818BF59
:104400000546F5E72946FFF7D1FB13E795F90120AB
:10441000002A04DA04A80021FFF7C8FB7B1C04A8CB
:1044200041462A4674E0AFB3B9F1020F04D1012C22
:104430003FF437AF00224FE0012C3FF432AF14F0CD
:10444000010249D0B9F1030F7FF463AF012243E0C9
:10445000E0FB02000A0003007CFF02002C010300C5
:1044600042010300D8450300C301030048010300D3
:104470005204030096F84010CCF30B0C614504F194
:104480000104D1D11AB904A82946FFF709FC304626
:10449000FFF7D7FA0BF00102224005EB4201B1F819
:1044A00002C00CF47041B1F5805FE3D0B1F5005F5C
:1044B0000ED104A841462A46631CCDF80CC0FFF774
:1044C00093FBDDF80CC004A86146FFF7B7FB8AE652
:1044D000454840F2CE3121E02CB94348434A444B91
:1044E00040F2D331E6E61BF0010F04F1FF3706D0AE
:1044F000AB8803F47043B3F5805F08BF6708012FF2
:1045000002D1002A3FF496AE04A841462A463B4613
:10451000FFF772FC8EE6344840F2EB31334A354BFC
:10452000C8E60FA80AF0F6FC0E9848B141680831B9
:10453000FBF7DBFF0E9B5A681A600D9A5A600D93C9
:104540009DF810307BB1022B02D12B482B491AE089
:10455000012B05D02448254A294B40F20741A9E602
:10456000284829490FE096F84040002C7FF4D1AE4E
:10457000099B002B3FF4CDAE0AE0022B07BF234876
:1045800023491D4823490CF00DFF0023044609E090
:10459000012B05D01448154A1F4B40F2264189E6ED
:1045A0000A9B1B6807980C93FBF7AEFF0A98FBF772
:1045B000ABFF5CB120463168B26B00230CF042FFC8
:1045C0003046FFF7D1F92046FBF746FF3046FFF7AC
:1045D000CBF90CAB93E80300019B83E8030018467A
:1045E00013B0BDE8F08F00BF0A0003007CFF02009B
:1045F0004F0103005B4F0300AC4203005601030070
:1046000072010300244303009B010300D84503000B
:10461000D5010300090203001802030010B5406829
:1046200020B14468FBF770FF2046F9E710BDFFFF9B
:104630002DE9F041054630200E4690461F46FBF717
:1046400048FF072D04460570C660A0F8108001D011
:10465000012D0BD10EB1B30705D00C480C4A0D4B00
:1046600031211AF09BF9B3681B0901E00A4B5B5D2D
:10467000638209F045F8042360616776E3842020B3
:10468000FBF70AFFE0622046BDE8F08187040300E3
:1046900018050300950403006404030010B50446E4
:1046A000C06AFBF731FF2046BDE81040FBF72CBF86
:1046B00030B5048D0022A24207D2C36A03EBC203C5
:1046C0005D688D4202D00132F5E70023184630BD07
:1046D00070B504460E461546FFF7EAFF08B1002301
:1046E00019E0E18C238D8B4208D30631E06AC900C2
:1046F000FBF7FBFEE38CE0620633E384228DE16A84
:10470000531C01EBC2002385002301F832304370B3
:104710004380466001232B7070BD43680BB118467F
:10472000FBE7FFF7C5BFFFFF4368F7B507460C4639
:104730001646002B39D05D68002D36D0184631461C
:10474000FFF7B6FF2B460028F5D00378023B022B7B
:104750002BD8042323707C6884B91648164A174B5B
:104760006E2112E0204631460DF10702FFF7B0FF3F
:104770009DF807305BB10423037064686368002B05
:10478000F0D10C480C4A0E4B70211AF007F903784F
:10479000022B02D10323037009E0033B012B06D94E
:1047A0000448054A074B7E21EFE70023237003B03E
:1047B000F0BD00BF870403006B040300B1040300D5
:1047C000C7040300D9040300838B426A0133918C30
:1047D0009BB29942838338BF938470472DE9F0419F
:1047E00080461F46B9B111F003050FD14868C3B226
:1047F00093420BD1060A0C1DB54205DA404654F827
:10480000041FB8470135F7E7BDE8F08140463B4655
:10481000BDE8F0411847BDE8F081EE2807D010F060
:10482000010306D043080CBF01200020704701207F
:10483000704718467047B0F5877F07D010F0010326
:1048400006D0430814BF01200020704701207047A4
:10485000184670478968024B9822FFF7BFBF00BF18
:10486000B16600008968024B4022FFF7B7BF00BF66
:104870006D4D0000C36A10B50446D3F8C830806A95
:104880009847E36AA06A9B6D0F219847E36AA06A84
:10489000D3F82431BDE81040184738B5C36A044640
:1048A0001B6F806A9847E36AA06AD3F8145100210D
:1048B0000B460A46A8472046BDE83840FFF7DABF56
:1048C000C36A8968DB6E806A09091847C36A896808
:1048D0005B6E806A184710B5044608461146226888
:1048E000FFF7A6FE636A436000238360236A0BB967
:1048F000206210BD9A680AB11346FBE7986010BDAC
:104900002DE9F74FB2F1000904460D469A4605DA43
:104910002F48304A304B40F2122106E0002B06DAD5
:104920002B482C4A2D4B40F213211AF037F818BFB0
:104930000B7EA1F81E901CBF43F008030B76436A60
:104940001B785BB9E36AA06AD3F8086129464A4636
:104950005346B44603B0BDE8F04F60470026B0466A
:10496000636A1A8D964223DADB6A03EBC60B13F8EF
:104970003630033B012B19D800272B8D9F4215DAC7
:10498000EB6A03EBC70213F83730042B0CD1DBF8CA
:1049900004105368994207D1E36AA06A9B69BBF887
:1049A0000220984708F101080137E6E70136D7E70A
:1049B000B8F1000FC6D0E36ACDF800A0D3F80C61BF
:1049C000A06A294642464B46B04703B0BDE8F08F87
:1049D000E20603007A050300F2060300060703005F
:1049E0002DE9F041044688460021C579878AC68AA8
:1049F000C1718182C18211461A46104BFFF7EEFE4B
:104A0000A368C3B9E18A51B1A38A43B9E36AA06A32
:104A1000D3F8E4309847E36AA06A9B6E9847204633
:104A20004146E28AA38AFFF76BFF003518BF0125D4
:104A3000E571A782E682BDE8F08100BF855F0000D6
:104A400070B54379012B05460C4606D1436A022115
:104A500022465B7EFFF73FFF206128462169A2685E
:104A60001523BDE87040FFF7BBBF70B51346427910
:104A7000012A06460C4604D107212246FFF72BFFE8
:104A8000A061A569E268304629460D23FFF7A8FF1B
:104A9000688A70BD0246407901280B4602D1506AEF
:104AA00003F0BABCD16A906A526A183103F0DCBCD8
:104AB0000246407901280B4602D1506A03F0BDBC82
:104AC000D16A906A526A283103F0CEBC10B5436AAD
:104AD0005A7E0446FFF7C9FF01462046BDE8104054
:104AE000FFF7E6BF0246407901280B4602D1506A23
:104AF00003F0A3BCD16A906A526A383103F0B4BCA7
:104B00002DE9F74F05460C4609B9012114E011F0D3
:104B100003070AD10B793D2B08D1CB681B09136021
:104B20008C68002CF1D0012700E0002704F00F036F
:104B3000022B07D1210907B91160EB6AA86ADB6C67
:104B400098475AE0A30703D16668F3B2412B06D019
:104B50002B482C4A2C4B40F2F93119F01FFF17B9A2
:104B6000A3681B091360360A04F1040A06F1FF3832
:104B7000D3464FF00009B14508DA5BF8040F00098D
:104B8000FCF779FC09F101098044F4E740466946E5
:104B9000FCF732FC4FF000098046B14517DAB9F155
:104BA000000F04D02E2388F8003008F101085AF8CD
:104BB000040F01A90009FCF768FC019A0146404670
:104BC0001EF0DFF9019B09F101099844E5E700981F
:104BD000FCF72CFCEB6A0146DB6CA86A984767B1CE
:104BE00008340127B74208DAEB6A54F8041FDB6E79
:104BF000A86A090998470137F4E703B0BDE8F08FC8
:104C0000E2060300A7050300190703002DE9F3419D
:104C10008D6805F00F030E2B04460E4605D03DB3FC
:104C2000A90725D12B793A2B02D1009500250BE05D
:104C3000372B1DD1AB680093ED682DB94748484A22
:104C4000484B40F2374152E03A2101AA6846FFF74B
:104C50007BFA0023019A194683420ADA52F823703C
:104C600040F2CE4E77450CBF013103310133F3E7FB
:104C70000021F268A06A40F23E339A42E36ADB6D9B
:104C800013D19847E36AA06A1B6E02219847E36A32
:104C9000A06AD3F8E430012198472046294601AAAA
:104CA000FFF72EFFE36A5B6D52E0984706F10C00B8
:104CB0003F216A46FFF748FA002680460BE09A0734
:104CC00010D11A793C2A0DD19968E26AA06A136E54
:104CD00009099847013646450BDA009B53F8263000
:104CE000002BECD11D4840F25F411D4A1E4B19F0CC
:104CF00055FEE36AA06AD3F8E4304146984720465F
:104D0000294601AAFFF7FCFE002646451DDA009B56
:104D100053F8265025B1AB0702D12B793C2B03D099
:104D20000E4840F26A41E0E7AF68E36AA06A1B6D93
:104D30003F0939469847E968204609B9394600E0F5
:104D40000909FFF7B5FE0136DFE7E36AD3F89430CF
:104D5000A06A984702B0BDE8F08100BFE2060300F8
:104D6000930503004A07030073070300C36A37B5BE
:104D700004460D46DB6D806A00219847E36AA06A0D
:104D80009B6D0F2198472046294601AAFFF7B8FEE0
:104D900020460199FFF78CFE03B030BD036823B9AC
:104DA00019B18B0704BF0B680360704708B503880F
:104DB0002BB90448044A054B8F2119F0EFFD013B44
:104DC000038008BDE206030044060300B0070300A9
:104DD00038B5836804460D465BB9114605480CF0AA
:104DE000E1FA2946A06004F10C00BDE83840FFF765
:104DF000D5BF38BDAC4203002DE9F04F0446012376
:104E00006271616203610B78072B89B00D4616460B
:104E100002D00021994A50E0012A07D9436B006B68
:104E20001F68114604F108032A46B847EF680FB11E
:104E3000BA0705D09248934A934B40F62B4108E0BD
:104E40003B7901970B2B06D08D488E4A8F4B40F64D
:104E50002D4119F0A3FD6379032B10D10D2107AA71
:104E600007F10C00FFF770F9636B079A9B68014626
:104E7000206B9847A3686883002B40F0F98039695C
:104E800011B301F00F05022D1AD10B0940F21922BE
:104E900093421CD005D840F2911293420BD10125C8
:104EA00015E040F27122934210D040F20332934257
:104EB00001D103250BE0764A2046FFF789FFDAE0AF
:104EC0002046744AFFF784FF022500E0002508A869
:104ED0007B6940F80C3D5D2106AAFFF735F94FF0DC
:104EE00000080290029B984580F2B880069A52F81A
:104EF00028104FEA880B09B18B0705D06048614A3A
:104F0000654B40F65341A4E70A792A2A00F0A380B2
:104F1000202A02D02046614ACFE78A680AB1970763
:104F200005D05748574A5E4B4FF4466191E7C86831
:104F30000028EFD110797D28ECD1976807F00F0099
:104F40000228E7D1D2F80C90B9F1000FE2D019F0A5
:104F5000030FDFD199F804208D2ADBD109F1080075
:104F6000A32107AAFFF7F0F83F09B7F50D7F8246A6
:104F700021D1012805D0069A204652F80B10494A43
:104F80009BE70798026802F00F02022AF3D1216919
:104F9000012E01F10102226158D90268676B206B72
:104FA000FF681209B847002850D1069A204652F8E7
:104FB0000B103D4A81E7B7F5BC7F13D1012805D01E
:104FC000069A204652F80B10384A76E7079A11687D
:104FD000C807F5D5012E39D9636B206B1B694910C1
:104FE000984733E040F2BB12974225D1012805DCF7
:104FF000069A204652F80B102D4A5EE7079A12686F
:10500000D107F5D5012E21D9531003930127574518
:105010001CD0079A52F82720D30705D4069A2046B9
:1050200052F80B10234A48E7616B206B4B690399D8
:10503000521098470137EAE7012E07D9636B206BBE
:10504000D3F818C0079B39465246E047A36813B10E
:10505000CDF804900CE008F1010843E76379012BD7
:1050600004D9636B206B5B6829469847A36813B12A
:10507000019B1B68E36009B0BDE8F08FCB0703001C
:10508000E2060300FE150300EF0703001208030009
:105090003F0803004C08030074080300960803004F
:1050A000B9080300E1080300FD0803000D0903002F
:1050B000290903004E090300014AFFF789BE00BF1A
:1050C0007009030073B50546406A067E0C46B107B9
:1050D00003D528462146374A63E004F00F01022930
:1050E00001D121090DE00CB1A10705D03248334AA6
:1050F000334B40F6BE212DE0217991420CD1A168BD
:105100000909EB791BB1838B0133838302E0438B65
:1051100001334383012638E0994226D1EB79002BF5
:10512000D7D10123EB71A368002B40D003F00F020D
:10513000022A05D1037E43F001030376A16811E042
:105140009A0702D11B79142B06D01B481B4A1D4B12
:1051500040F6DA2119F022FC037E43F001030376C6
:10516000A3689968090903260FE09DF81830994251
:1051700005D01148114A144B40F6E121EAE7A16835
:1051800046F0020606760909052681B1686A0DF126
:105190000702FFF79DFA9DF807302BB90B4A284606
:1051A0002146FFF715FE02E002230370467002B0AD
:1051B00070BD00BF09020300E20603005A050300A8
:1051C000950403008D090300C4090300F2090300DC
:1051D00007B51923009317221823FFF773FF03B0B5
:1051E0005DF804FB07B5112300930F221023FFF78E
:1051F00069FF03B05DF804FB2DE9F04F0F46002571
:1052000057F8043F89B004464FEA1328BB46A94625
:10521000AA46454539DA5BF8040F820712D000F040
:105220000F06062E07D00A2E05D03648364A374BD1
:105230004FF40F610CE000090191FCF71CF9019992
:10524000824417E030B92F482F4A314B40F6F30122
:1052500019F0A4FB0379B12B07D0B22B07D0294852
:10526000294A2C4B40F6F801F2E7062600E00A2610
:10527000C3689A4435B14E4505D02046264AFFF70B
:10528000A7FD3CE0B1460135C3E76379042B05D0A7
:10529000E36AA06A5B6E2149984730E0514604A852
:1052A000FCF7B7F9069D4FF0000AC24518DA57F827
:1052B000046FB3070AD003A93009FCF7E6F8039A94
:1052C000014628461DF05DFE039B05E02846B168B7
:1052D000F2681DF056FEF3681D440AF1010AE4E786
:1052E000E36A0F485D6E0F4BA46A04A9B9F1060F7B
:1052F00018BF18460FF0D0FB01462046A84709B05A
:10530000BDE8F08FE2060300C00603000B0A0300AD
:105310004D0A0300740A0300A60A030000530300A9
:10532000AC5E030034590300438B70B5044613B9D7
:105330000B4AFFF74DFDA28BE38B9A4206D2094838
:10534000094A0A4B40F2AE3119F028FBE16AA06A23
:10535000D1F8B050618BD21A2B46BDE87040184787
:10536000CD0A0300E206030080160300E50A0300ED
:10537000038B70B5044613B90B4AFFF729FDA28BC6
:10538000E38B9A4206D20948094A0A4B40F2A631F9
:1053900019F004FBE16AA06AD1F8AC50218BD21A53
:1053A0002B46BDE870401847210B0300E2060300BE
:1053B0006D160300E50A030070B5054600293BD0D1
:1053C0008A0739D10B790F2B12D0102B08D189689D
:1053D000002931D08B072FD10B79142B2CD107E06A
:1053E000112B05D01548164A164B40F611310DE029
:1053F000CC680CB38968686A0909FFF759F9034654
:1054000030B90E480E4A104B40F61B3119F0C6FA5F
:1054100004F00F01022908D1EA6AA86A16685A88BE
:10542000B4462309BDE87040604728462146074A34
:10543000BDE87040FFF7CCBC70BD00BFE2060300C2
:1054400007060300360B0300720B0300820B0300F8
:1054500037B504460D4600294BD0CA0704D5C36AA8
:10546000806ADB6D491043E08B072ED005F00F05F5
:10547000062D4FEA111106D00A2D08D0022D1CD19D
:10548000FFF708FB35E0C36A806A1B6E30E04379A2
:10549000042B04D0C36A18495B6E806A28E0084672
:1054A00001A9FBF7F2FFE36A0199A46A5D6E0FF0B0
:1054B000E7FD01462046A8471BE0052919D0C36A2D
:1054C000806A9B6DC9B2984713E0C36A09685B693B
:1054D000806A98472A79094B53F8223033B9084833
:1054E000084A094B40F6A62119F058FA20462946E9
:1054F000984703B030BD00BF00530300C816030037
:10550000E206030077060300AD0B03002DE9F14F1F
:1055100004460D4616461F462846FFF77EF900282A
:1055200056D12846FFF787F900285FD1002D64D0B7
:10553000A90762D16B684FEA1328DBB2642B04D150
:105540003EB104354FF000092CE0652B36D1002E1A
:10555000F7D0D4F8109009F10103236105F1040B91
:105560004FF0000A08F1FF339A450ADA20465BF84B
:10557000041F86F001024B46FFF7C8FF0AF1010A3B
:10558000F0E708F10108204655F828103B4632465E
:10559000FFF7BCFFE36AA06A9B6C494601B0BDE817
:1055A000F04F1847C14536DA204655F8041F3246F9
:1055B0003B46FFF7ABFF09F10109F3E7672B03D186
:1055C000AD6886F00106A7E7832B16D1AB680BB94F
:1055D0000EBB0CE09A0702D11B79872B06D00F482F
:1055E0000F4A104B40F22F1119F0D8F99EB1E36A1F
:1055F000A06AD3F8A0303946D0E720462946FFF705
:1056000027FFE36AA06AD3F8A43031463A4601B0D6
:10561000BDE8F04F184701B0BDE8F08FE206030087
:1056200032160300B70B0300436A1B78072B10B533
:105630000A46044606D0022B04D0124ABDE81040A8
:10564000FFF7C6BB916829B9E36AA06A9B6D0F2179
:1056500098470FE08B0720460AD10B79AF2B07D173
:105660008968FFF7F5FE2046BDE81040FFF702B954
:10567000FFF7EEFEE36AA06AD3F82031BDE81040E0
:10568000184700BFF50B030070B54D682D0A022DB9
:1056900004460B4605D01C481C4A1D4B40F62211FF
:1056A0000BE0CD6825B1A90702D12979AB2906D035
:1056B0001548164A174B40F6231119F06FF9417936
:1056C000012906D1466A11461A46737EFFF703F98F
:1056D00068610022134620466969FFF711F9E968FD
:1056E0002046FFF7B5FEE36AA06AD3F8C8309847B2
:1056F000E36AA06AD3F810510022AC460121134698
:10570000BDE87040604700BFE2060300E8150300F3
:105710000E0C0300370C03002DE9F04F87B0044650
:10572000039101921E460D4649BB83793BB3436A00
:105730001B78072B23D140F24711FFF7ABF9626AC0
:10574000108D2946814216DAD36A03EBC1035D78D6
:10575000ED070ED5E26AA06A95695A880121A8472B
:10576000E36AA06AD3F81051002202211346A84729
:105770008DE00131E6E720460021464A22E003A8F9
:10578000A32105AAFEF7E0FC4FF0000A8346D046AD
:10579000D1465546574604E045F0010599460AF1C1
:1057A000010ADA454BDA059B53F82A30002B3DD02D
:1057B00099073BD11A79A52A07D1EA07ECD5364AD1
:1057C00020461946FFF704FB61E0A62A09D1A80785
:1057D00003D520461946314AF4E745F002059846BC
:1057E000DDE7A72A22D1DA6822B1910702D1127926
:1057F000AB2A15D0996801F00F02022A03D0204687
:105800001946274ADEE7E26AA06A126E0293090986
:105810009047029B2046D968FFF71AFE0137BEE782
:10582000204619460622FFF72FFF06E020461946BC
:105830000FB11C4AC6E7FFF70BFE0136AFE7CDB14B
:10584000B9F1000F04D1E36AA06A9B6E984704E0A7
:105850002046D9F80810FFF7FBFDB8F1000F04D17E
:10586000E36AA06A9B6E984704E02046D8F80810C7
:10587000FFF7EEFD019AE36A12B1D3F814C101E01B
:10588000D3F810C1A06A31463A462B46E04707B02C
:10589000BDE8F08F700C03008E0C0300A50C030014
:1058A000BD0C0300DE0C030070B50D4641790129E3
:1058B0000446134603D12A46FFF70DF86861E36AF0
:1058C000A06A5B6F98476E690022134620463146F6
:1058D000FFF716F8E36A718A1B6EA06A9847E968B9
:1058E00029B18B0703D10B79A22B08BF002100221D
:1058F0002046A2710223FFF70FFF708A70BD10B51A
:10590000436A5A7E0446FFF7CFFF01462046BDE8B2
:105910001040FFF7CDB8002289681346FFF7FCBEA0
:1059200038B50C460546C968FFF792FD2846A168C0
:10593000BDE83840FFF78CBD0B79932B70B504465A
:1059400005D02448244A254B40F6E8112AE08D680A
:105950002DB9C36A806A9B6D0F21984732E0A90771
:105960002DD12B79952B06D1C36A806A9B6D0F21AF
:105970009847A96819E0962B21D1A968FFF768FD1F
:10598000EB680BB19A0705D01248134A144B40F646
:10599000FD1107E01A79972A06D00E480E4A114BDE
:1059A00040F6FF1118F0FAFF996859B12046FFF749
:1059B0004FFDE36AA06AD3F8F830032107E02946D7
:1059C000FFF746FDE36AA06AD3F8F8300221BDE88C
:1059D00070401847E206030017160300000D03008D
:1059E000310D0300580D030038B5C36A04460D4657
:1059F0009B6D806A0F21984720462946BDE83840B4
:105A0000FFF79ABF10B504468968FFF721FDE36AE6
:105A1000A06A9B6FBDE810401847FFFF2DE9F743D0
:105A20008D6804462DB9C36A806AD3F8EC302946E4
:105A3000A3E0AA0740F098802B799C2B0FD1C36A72
:105A4000806AD3F8EC300121984720462946FFF7B9
:105A5000FFFCE36AA06AD3F8F03098478EE09B2BF6
:105A600040F08280E86808B1830705D04548464A7F
:105A7000464B40F68C1164E003799F2B5AD1A0214C
:105A8000083001AAFEF760FBA9688046B9B18F070C
:105A900015D10B799C2B12D1E36AA06AD3F8EC30B4
:105AA00008F1010198472046A968FFF7D1FCE36A95
:105AB000A06AD3F8F03098474FF0010904E020467F
:105AC000FFF7C6FC4FF000090027474528DA019B85
:105AD00053F8271039B18E0707D10E79A6F19C0033
