:1000000000800020BD010000E1FF0100ADFF010004
:10001000ADFF0100ADFF0100ADFF0100ADFF01002C
:10002000ADFF0100ADFF0100ADFF0100E1FF0100E8
:10003000E1FF0100ADFF0100B5F801009DFF0100E7
:10004000E1FF0100E1FF0100E1FF0100E1FF01002C
:10005000E1FF0100E1FF0100E1FF0100E1FF01001C
:10006000E1FF0100E1FF0100E1FF0100E1FF01000C
:10007000E1FF0100E1FF0100E1FF0100E1FF0100FC
:10008000E1FF0100E1FF0100E1FF0100E1FF0100EC
:10009000E1FF0100E1FF0100E1FF0100E1FF0100DC
:1000A000E1FF0100E1FF0100E1FF0100E1FF0100CC
:1000B000E1FF0100E1FF0100E1FF0100E1FF0100BC
:1000C000E1FF0100E1FF0100E1FF0100E1FF0100AC
:1000D000E1FF0100E1FF0100E1FF0100E1FF01009C
:1000E000E1FF0100E1FF0100E1FF0100E1FF01008C
:1000F000E1FF0100B5F40100E1FF0100BBF40100E4
:10010000E1FF0100C1F40100E1FF0100E1FF010096
:10011000E1FF0100E1FF0100E1FF0100E1FF01005B
:10012000E1FF0100E1FF0100E1FF0100E1FF01004B
:10013000E1FF0100E1FF010099EC01009FEC0100EB
:10014000A5EC0100E1FF0100E1FF0100E1FF01007A
:10015000E1FF0100E1FF0100E1FF0100E1FF01001B
:10016000E1FF010075040200E1FF0100E1FF010071
:10017000E1FF0100E1FF0100E1FF0100E1FF0100FB
:10018000E1FF0100E1FF0100E1FF0100E1FF0100EB
:10019000E1FF0100E1FF0100E1FF0100E1FF0100DB
:1001A000E1FF0100E1FF0100E1FF0100E1FF0100CB
:1001B000E1FF0100E1FF0100E1FF0100564B4CF2BD
:1001C000205210B51A804DF628121A8000BF00BFC9
:1001D0001FF00AFF514B4FF010621A60504A9A60AC
:1001E000504ADA60504A136813F4807301BF4F49D4
:1001F0000B604FF4A85313604D4B4E491A7810070B
:1002000042BF1A7842F008021A704B4B2A221A7029
:100210004A4A4B4B8B4204D252F8040F43F8040B6A
:10022000F8E7484B484A0021934202D243F8041BA6
:10023000FAE7464A4648002350F8231042F82310B4
:1002400001336F2BF8D1434B434A802103F8011B44
:100250009342FBD1414B3D4A1A60414B8A221A70AE
:10026000A3F5805324225A70A0221A709A7991071C
:10027000FCD59A79D206FCD43A4A937903F00C0360
:10028000082B384BF9D103221A7140225A719A79FE
:100290009406FCD533498A79324B5006FBD5324A55
:1002A000324911600221516020221A709A7902F0BD
:1002B0000C020C2AFAD12E4B2E4A1A602E4B2F4AD2
:1002C0001A6000225A60072243F8042C2C4AC3F813
:1002D0000C2D62B61FF012FF144B1B68DA0705D510
:1002E00028481FF089FE284B284A1A60284B1B78A3
:1002F0005B0609D5244C254B22689A4204D121483B
:100300001FF07AFE002323601DF0B2FA1FF072FE88
:100310001DF04EFAFEE700BF0E200540308004407D
:10032000823F04000100002B10D0034014D0034092
:1003300002D00740048CFF1F00E00740D87F030075
:100340002087FF1F048CFF1F5C8FFF1F0082FF1F91
:100350000000000000E400E05FE400E008ED00E0E1
:100360000050064000400640448004400000030165
:1003700004800440C010050014E000E0FF76010096
:1003800000002020B8043C581CE00340A5C3945A48
:1003900000F00740FFFFFFFFFFFFFFFFFFFFFFFF32
:1003A000FFFFFFFFFFFFFFFFFFFFFFFFFFFFFFFF5D
:1003B000FFFFFFFFFFFFFFFFFFFFFFFFFFFFFFFF4D
:1003C000FFFFFFFFFFFFFFFFFFFFFFFFFFFFFFFF3D
:1003D000FFFFFFFFFFFFFFFFFFFFFFFFFFFFFFFF2D
:1003E000FFFFFFFFFFFFFFFFFFFFFFFFFFFFFFFF1D
:1003F000FFFFFFFFFFFFFFFFFFFFFFFFFFFFFFFF0D
:10040000FFFFFFFFFFFFFFFFFFFFFFFFDEF9FFFF23
:10041000C460056146618761C0F81C80C0F8209007
:10042000C0F824A0C0F828B0C0F82CD0C0F808E06C
:1004300000F002B80020FFFF024B9A68026098604B
:10044000002070474C8DFF1F024B9A6812689A601B
:10045000704700BF4C8DFF1F0E4B9C6806461D4623
:100460000CB91DF089F923686660AB602046C4684A
:10047000056946698769D0F81C80D0F82090D0F8CB
:1004800024A0D0F828B0D0F82CD0D0F808E0012073
:100490007047FEE74C8DFF1F10B50021044600F0A9
:1004A00033FB28B920461CB1BDE810400EF07EBADF
:1004B00010BD002100F028BB10B50446FFF7ECFF8B
:1004C00028B920461CB1BDE810400EF06FBA10BD2F
:1004D00010B501220C4600F093FC28B920461CB14F
:1004E000BDE810400EF062BA10BD00F089BC00F00B
:1004F000E7BBFFFF3548D0F8E4312DE9F0474FF076
:10050000030E00F1E406044600F5F277B34246D943
:100510001D1FD0F8CCC053F8041CC0F8E4510022D1
:1005200001328B184FEA930803F003031CF808808C
:100530005B0048FA03F303F00303022BF0D0D0F87A
:10054000D83012014FEA920C03EB0113002A3AD083
:10055000043B53F8042F11071AD1D0F8D8108A425F
:1005600016D3D4F8DC50AA4212D2521A48BF0F3226
:1005700012114FEA9209D0F8CCA002F003011AF848
:100580000980490048FA01F505F00305012D08D05E
:10059000BCF1010CDDD1D0F8E431B342B8D8BDE8EC
:1005A000F0870EFA01F141EA08080AF80980D4F848
:1005B000E411B94201F1040836BFC4F8E481C4F87B
:1005C000E0500A60E4E72B46A0E700BF4C8DFF1F18
:1005D000F8B5030704D12D4ED6F8D830984202D290
:1005E000002845D1F8BDD6F8DC209042F8D2C31AD5
:1005F00048BF0F331B119C08D6F8CC20234F125D47
:1006000003F0030149000A4102F00302012A1846DF
:1006100035D1D908D7F8D4E003F0070C1EF8015003
:1006200002FA0CF225EA02020EF80120D7F8F421B2
:10063000D6F8CC50944238BFC7F8F4412A5D03275E
:100640009C0803F003035B0007FA03F322EA0302AA
:100650002A550130D6F8CC50840800F003032A5DF7
:10066000590042FA01F101F003010229EBD0F8BD73
:100670000748084A084B40F235211DF089F8044824
:10068000044A054B40F231211DF082F84C8DFF1FCA
:10069000188E0200648F0200248E020021F00F01E8
:1006A000F8B50A1A1B4D1C4CD200A5FB0252520A87
:1006B000950007358718ED08A1EB821607EB050EAC
:1006C0007645C4F8D470C4F8D020C4F8CC00C4F87F
:1006D000DC10C4F8D86017D3002120F003FC2A46B0
:1006E0000021D4F8D40020F0FDFB002301214FF0BD
:1006F000FF32C4F8F431A4F8E831C4F8EC31A4F8BE
:10070000EA11C4F8F021F8BD0448054A054B8721D9
:100710001DF03EF8F32C23FA4C8DFF1F188E0200BB
:10072000048E0200308E0200034AB2F8E831013331
:10073000A2F8E831704700BF4C8DFF1F034AB2F8A2
:10074000E831013BA2F8E831704700BF4C8DFF1F34
:10075000034BB3F8E801003018BF0120704700BF19
:100760004C8DFF1F2DE9F843264CB4F8E8310022E8
:1007700004F1E4010133A4F8E831C4F8E411C4F849
:10078000EC21C4F8E020A4F1040904F1B4052646E4
:1007900004F5F278032759F8043F1A0719D1D4F861
:1007A000D820934215D3D6F8DC108B4211D29B1A75
:1007B00048BF0F331B119808D4F8CCE003F00302B4
:1007C0001EF800C052004CFA02F101F003010129A9
:1007D00005D0FFF78FFEA945DDD1BDE8F88307FA04
:1007E00002F242EA0C020EF80020D6F8E42142455B
:1007F00002F1040036BFC6F8E401C6F8E010136049
:10080000E7E700BF4C8DFF1F002942D02DE9F047DC
:10081000204E0D46A0F10409374606F5F278002473
:1008200059F8043F1A0719D1D6F8D8108B4215D3BE
:10083000D7F8DC20934211D25B1A48BF0F331B114B
:100840009808D6F8CCE003F003021EF800C052006E
:100850004CFA02F101F00301012906D00134FFF73F
:1008600049FEAC42DCD1BDE8F0874FF0030A0AFA3A
:1008700002F242EA0C020EF80020D6F8E4214245CA
:1008800002F1040036BFC6F8E401C6F8E0101360B8
:10089000E4E770474C8DFF1F2DE9F04F544ED6F81A
:1008A000D000D6F8E03083B0800006F1E40537468A
:1008B0003BB30024C6F8E451C6F8E04018B944E060
:1008C0000134844219D2A308D6F8CC1004F00302F4
:1008D000CB5C5200134103F00303032BF0D1D7F894
:1008E000E4311A1DC7F8E4211C60FFF703FED7F8B6
:1008F000D000013480008442E5D3D6F8E030002BEC
:10090000D7D110B39C46DFF8E8901D464FF0030A9C
:1009100006E0032B60D0012B22D00135854214D292
:10092000AF08D6F8CC2005F00304D15D640041FA8D
:1009300004F303F00303022B02EB070EE9D1BCF131
:10094000000F3DD101358542EAD3B6F8E8310022E7
:10095000013BA6F8E831C6F8F42103B0BDE8F08FFA
:100960004FEAD50BD9F8D42012F80BC005F00708D0
:100970004CFA08F0C3075A4422D52901D9F8D80007
:100980004358084483B16A4640F203110DF032F92E
:10099000009A22B100206A4601460DF0BDF8D6F853
:1009A000D42012F80BC05A44012303FA08F32CEAAE
:1009B000030C82F800C0D6F8CC30D95D03EB070EEB
:1009C0000AFA04F321EA03018EF80010D6F8D000E9
:1009D0004FF0010C8000A0E70223A34021EA0301AD
:1009E000D155D9F8D0004FF0000C800095E700BF3A
:1009F0004C8DFF1F434BD3F8D810D3F8DC202DE9E2
:100A0000F04F521A0025D3F8CC90D3F8D03085603F
:100A100080E82400C56005614561856199F800B0F2
:100A20004FEA83082E46AC46AA46AE4629462A46D9
:100A30002F467F004BFA07FB0BF00303012B31D04D
:100A40003FD3022B02D10136466001310132C2EBA5
:100A50000804B4FA84F4640964B9930802F0030743
:100A600019F803B07B004BFA03F313F0030301D032
:100A7000012BDED101292CD002292ED0A94284BF1E
:100A800081610D4694B9012B4FEA920329D019F8E0
:100A900003B002F003077F004BFA07FB0BF00303E0
:100AA000012BCDD1013646601946CFE7D64501D995
:100AB000C0F80CE036014FEA0C1346608360BDE8D5
:100AC000F08F0CF1010CC0F808C00EF1010E0021EE
:100AD000BCE7076901370761D0E74769013747611C
:100AE000CCE7D64505D8A64619F803B002F00307AF
:100AF0009FE7C0F80CE0F24619F803B0A64602F0F2
:100B0000030796E74C8DFF1F0F302DE9F84F0609BC
:100B100057D06A4FB7F8E831002B52D1B7F8EA4105
:100B20000D46002C50D1D7F8F421D7F8D0E072450B
:100B300038BF4FF0010C44D2D7F8CC0081181AE02E
:100B40000134A64252D913F00C0F1ED10134A64233
:100B500040F2A88013F0300F1CD10134A64240F2BD
:100B6000A48013F0C00F1AD10134A64240F2A08035
:100B70000132724518D211F8013B13F0030FDFD098
:100B800013F00C0F4FF00004E0D013F0300F4FF0D3
:100B90000004E2D013F0C00F4FF00004E4D00132A3
:100BA00072454FF00004E6D3BCF1000F09D11EF0EE
:100BB00011FED7F8F421D7F8D0E072454FF0010CC0
:100BC000BAD30020BDE8F88FD7F8EC21D7F8F03180
:100BD0009A4270D2D7F8F421D7F8D0E0724528BFF6
:100BE0000024E4D24FF0000C6446A5E79300012CEA
:100BF000A3EB040103F1010C01F1010804BF4FEA6A
:100C00009C02C7F8F4214FEA980208F003094FEA62
:100C1000490910F802E0012404FA09F4023144EA17
:100C20000E048B42845428BF4FF0020910D34FEAC0
:100C3000910ED7F8CC2001F0030412F80E006400E6
:100C400009FA04F4013120438B4202F80E00EED27F
:100C5000D7F8D8B0D7F8EC31DFF860904FEA081A2F
:100C6000C8EB0C020BEB0A041E44120120460021C3
:100C7000C7F8EC6120F036F915B92046BDE8F88FC9
:100C80000023D9F8D4504BF80A304FEAD801012399
:100C90006A5C08F0070803FA08F313436B54204614
:100CA000BDE8F88F9200531CA1E79200931C9EE7C9
:100CB0009200D31C9BE71EF08DFD8BE74C8DFF1F30
:100CC000F8B5304CB4F8E8311BB9030702D000285E
:100CD00049D1F8BDD4F8D8309842F8D3D4F8DC2004
:100CE0009042F4D2C31A48BF0F331B119E08D4F8A8
:100CF000CC20244F925D03F0030149000A4102F029
:100D00000302012A194635D1D808D7F8D4E003F0F8
:100D1000070C1EF8005002FA0CF225EA02020EF847
:100D20000020D7F8F421D4F8CC50964238BFC7F849
:100D3000F461AA5D03279E0803F003035B0007FA32
:100D400003F322EA0302AA550131D4F8CC508E08ED
:100D500001F00303AA5D580042FA00F000F003001E
:100D60000228EBD0F8BD0848084A094B40F235216B
:100D70001CF00EFD0448054A054B40F231211CF0E1
:100D800007FD00BF4C8DFF1F188E0200648F02000C
:100D9000248E020010F00F031DD1184AD2F8D8108B
:100DA000884219D310B4D2F8DC40A0420FD2401AC6
:100DB00048BF0F300111D2F8CC408A0801F003007F
:100DC000A25C4000024102F00302012A06D018464C
:100DD0005DF8044B7047002318467047002001302F
:100DE0000B189A0803F00303A25C5B0042FA03F3BA
:100DF00003F00303022BF2D00301E8E74C8DFF1F41
:100E00002DE9F0470446002800F0D080002967D083
:100E1000030769D1DFF8BCE1DEF8D800844263D370
:100E2000DEF8DC309C425FD2201A48BF0F304FEA18
:100E300020184FEA9803DEF8CC706648FE5C08F094
:100E400003035B001E4106F00306012E4CD1B0F8EF
:100E5000E851002D48D1D0F8D03008F101004FEA18
:100E6000830901F10F0C81454FEA1C1C10D983083E
:100E700000F0030AFB5C4FEA4A0A43FA0AF303F064
:100E80000303022B33D01BB90135AB199C452FD876
:100E9000B44522D0664534D9B6EB0C0608EB0C00FD
:100EA00013D0064403464FF0030C01E0DEF8CC708B
:100EB0009D0803F003017A5D49000CFA01F101334A
:100EC00022EA0102B3427A55F0D1DEF8F431414A08
:100ED0008008984201D2C2F8F4012046BDE8F087AC
:100EE0003C4BB3F8E8413CB10020BDE8F087013647
:100EF00001308145BBD8CBE7FFF76AFB2046BDE850
:100F0000F0873544AC4533D806EB080508EB0C00F8
:100F1000854222D2A90805F003037A5C5B0042FAFD
:100F200003F818F0030F394408BF02270ED049E038
:100F3000A908DEF8CC8005F0030318F801205B0057
:100F400042FA03F919F0030F41443BD107FA03F3C6
:100F50000135134385420B70EAD3C6EB0C02120134
:100F600004EB061000211FF0BDFF2046BDE8F0870E
:100F7000DEF8D470174D4FEAD80308F00700FB5C89
:100F8000034103F00103002AAED008461946FFF7DB
:100F9000BBFD07460028A7D0320121461FF05FFFA6
:100FA000B5F8E83143B13846BDE8F0870846214638
:100FB000BDE8F047FFF7A8BD2046FFF709FB38461C
:100FC000BDE8F0870448054A054B40F2CB211CF0F0
:100FD000DFFB00BF4C8DFF1F188E02000C8E02003D
:100FE000948E020010B58AB003A80B4CFFF702FDE7
:100FF0000599039A049B00912046084900F080FF60
:101000000998069900900191079A089B0449204687
:1010100000F076FF0AB010BDA4B70200B08E020047
:10102000D48E02002DE9F041544F55495548D7F868
:10103000D82000F065FFD7F8D010890018BF002530
:101040001ED180E005F0030676004FEA9508D7F838
:10105000CC304A4A13F80830334103F00303022B23
:101060006FD0032B6BD0012B44D02E22464945482C
:1010700000F046FFD7F8D01001358900A94262D9A7
:10108000A806DFD18D426CD2D7F8CC004FEA950884
:1010900005F0030610F80830760033419A0721D195
:1010A0002C4604E0825C42FA03F39B0708D101342A
:1010B00004F003038C424FEA94024FEA4303F1D356
:1010C000621B7F2A0ED992092E48304900F018FF82
:1010D000D7F8D03024F03F05B5EB830F33D24FEA79
:1010E000950800262A4A2B4926482B011A4000F071
:1010F00007FFACE7D2F8D810274A2B01CB58934210
:1011000029D0264A934228D0254A93422FD0254AF7
:1011100093421ED0244A93421BD0244A93421ED0AD
:10112000234A93421BD0234A934222D0224A93421D
:1011300021D0224A93420CBF4D22682296E76D22AD
:1011400094E73D2292E70F481D49BDE8F04100F0C9
:101150004FBB53228AE7542288E74C2286E741227C
:1011600084E705F0030676004FEA9508BAE74422C3
:101170007CE746227AE7422278E700BF4C8DFF1FCA
:101180001C8F0200A4B70200608F02003C8F020097
:10119000F0FF0F00588F0200A82103004410030045
:1011A00014FD0200F81F0300B41F03001CFA020024
:1011B000E0F9020098080300DC090300D8110300DD
:1011C000388F0200074B5B694BB15A68904204D3D9
:1011D000801A043053F8200070471B68F4E7184663
:1011E000704700BF4C8DFF1F70B5144C63690646F5
:1011F0009868DB68834216D30230C000FFF759F9C4
:10120000054620B96369986840000DF0CFFB63691B
:101210002B60D9685A689B685B00AB600A44002366
:101220006A60EB6065616369DA68501C0432D860FB
:1012300043F822605B68013B184470BD4C8DFF1F72
:10124000014441F20553884205D210F8012B03EB0B
:1012500043135340F7E798B2002808BF01207047B6
:10126000034B044A5A610022C3F8B820704700BFFC
:101270004C8DFF1FC88F02002DE9F84F814688462C
:10128000FFF7DEFF154B5C69834624B3E56804F184
:10129000100A043504EB85055646AE42374618D28F
:1012A00056F8040B4278037843EA02235B45F4D1F5
:1012B00083784345F1D10330494642461FF034FE5E
:1012C0000028EAD16368CAEB070003EBA000BDE881
:1012D000F88F2468D9E72046BDE8F88F4C8DFF1FB2
:1012E000FF292DE9F04780460E4605D93448354A96
:1012F000354BBC211CF04CFAFFF7BEFF024600281C
:101300005BD1324CD4F8B800351DD0B1D4F8C03020
:10131000D4F8BC102B448B4213D92944FFF7E5F8CD
:10132000074648B9D4F8B800D4F8C0103A46FFF7D9
:10133000DCF8C4F8B87004E0D4F8BC302B44C4F82E
:10134000BC30D4F8B830CBB97F2D8CBF2F46802766
:101350003846FFF7AEF8C4F8B80050B92846FFF792
:10136000A8F81A4BC3F8B80010B928460DF01EFBB8
:101370002F460023C4F8BC70C4F8C030D4F8C09025
:10138000D4F8B8A031464D444046C4F8C050FFF7E9
:1013900057FF0AEB09070AF80900000A7870BE70C7
:1013A000F81C414632463E441FF059FD0023F370BD
:1013B0003846BDE8F047FFF717BFBDE8F08700BF2C
:1013C000EB9A0200DC9A0200F89A02004C8DFF1F93
:1013D000FF2838B504460D4605D90748074A084B8B
:1013E000F7211CF0D5F90430FFF756F82860847017
:1013F0002868033038BD00BFEB9A02005FB70200D7
:10140000F89A0200F8B58578C71C04462946384684
:10141000FFF732FF064668B938462946FFF710FF46
:1014200025442070000A6070EE702046BDE8F84048
:10143000FFF7DABE2046FFF75AF83046F8BD08B588
:10144000FFF7C0FE4278007840EA022008BD08B5E8
:10145000FFF7B8FE807808BD08B5FFF7B3FE03308C
:1014600008BD10B50C46FFF7ADFE8378236003304E
:1014700010BDFFFF2DE9F0411D46002303600B6006
:1014800013602B60174B5C690746884616461CB3F1
:10149000154B9C4220D03B6801333B60D8F80020BC
:1014A000E3681344C8F80030E368043304F1100221
:1014B00004EB83039A4207D23168081D52F8041BDB
:1014C000897801443160F5E72046FFF763FC2B681B
:1014D000246818442860DAE72A68336813442B60CC
:1014E000BDE8F0814C8DFF1FC88F02000C4B70B51A
:1014F0005C69A4B10B4B9C4211D0E368043304F146
:10150000100604EB8305AE4207D256F8042B0649B9
:101510000648033200F0F4FCF5E72468E9E770BD03
:101520004C8DFF1FC88F0200259B0200A4B702004C
:1015300038B5446803682144994205460DD9037BB8
:10154000DB070CD401F1100424F007040834806890
:101550002146FEF7BDFF2C60A860012038BD0020A9
:1015600038BD70B50E46114605461446FFF7E0FF3C
:1015700038B92B7BDB070ED595E818009C420AD2C0
:101580001C1B6B68A8682246184431461FF093FC68
:101590006B681C446C6070BD70B50C46012105463B
:1015A0004668FFF7C5FF70B1B44228BF3446A9684A
:1015B000601C0844321B21441FF07DFC6B68A86846
:1015C00001336B60204470BD38B504460025002906
:1015D00014BF0846012020606560FEF75DFF237B95
:1015E000A06065F30003237338BD38B505460C468B
:1015F0000131FFF7E9FF6C6038BD00234360037BD6
:10160000016043F0010382600373704738B51446EC
:101610000546FFF7D9FF024B2560636038BD00BF68
:1016200063150000037BDB0710B5044602D4806815
:10163000FEF75DFF0023A36010BD38B5037BDB0719
:1016400004460D460AD4016880682944FEF740FF2D
:101650002368A0601D442560184438BD002038BDB3
:1016600038B504460D46FFF763FF20B16368A068F4
:101670001D446560184438BD90E80C009A4210B5CE
:10168000044605D0A26863680021D154A06810BD4B
:101690000121FFF7D2FF0028F4D110BD10B50C4690
:1016A0000121FFF7DDFF00B1047010BD7F2910B5E7
:1016B0000C4606D80121FFF7D3FF002849D004705B
:1016C00010BDB1F5006F0ED20221FFF7C9FF00284F
:1016D0003FD0A30904F03F0463F03F0364F07F04AC
:1016E0000370447010BDB1F5803F12D20321FFF7A3
:1016F000B7FF70B3230B63F01F030370C4F38513AC
:1017000004F03F0463F07F0364F07F04437084704F
:1017100010BDB1F5881F05D30E480F4A0F4BB021FD
:101720001CF036F80421FFF79BFF90B1A30C63F087
:101730000F030370C4F3053363F07F034370C4F3F6
:10174000851304F03F0463F07F0364F07F0483702B
:10175000C47010BD70B702008AB702007DB70200E6
:1017600038B5054608460C461FF0F0FB21460246F8
:101770002846BDE83840FFF7F4BE10B51446FFF721
:101780000BFF00B1047010BD10B51446FFF704FF45
:1017900000B1047010BD436899428CBF00235B1AEE
:1017A0004360704770B515464268914204460ED2B8
:1017B0004B19934201D3416070BD8668521A70186C
:1017C000521BF1181FF077FB6268521B626070BDFC
:1017D00007B5044B00906846019300F045FA03B04A
:1017E0005DF804FB63150000084611461CF09EBD21
:1017F00070B5064608460D461FF0A8FB044620B10A
:1018000096E80900294622469847204670BDFFFF0A
:101810002DE9F74F0D9C9146A41A9DF8302012F047
:10182000DF0F06468A4609D0302A0CAA264F0EBF83
:101830004FF0100817464FF0010802E0234F4FF019
:10184000100813F0800205D0022394FBF3F3E51A8D
:101850001C4602E013F0010515D1002C16DDA3464D
:10186000C345DC46A8BFC446624696E8090039462F
:10187000CDF804C09847DDF804C0CCEB0B0BBBF1EE
:10188000000FEDDC03E02546144600E00024B9F12A
:10189000000F05D096E8090051464A4698474C4447
:1018A000002D0DDD2C444545A946A8BFC14696E84C
:1018B000090039464A46C9EB05059847002DF2DC78
:1018C000204603B0BDE8F08FF5B7020006B802006D
:1018D0002DE9F04389B08046119E10989DF84890FC
:1018E000139F0AB900220DE0002904DA2D228DF899
:1018F0000F2049420EE0B40701D52B2202E0720707
:10190000F0D520228DF80F2021B908AC302304F83F
:10191000013D12E008ACB1FBF3F503FB1512092AF7
:10192000C6BFA0F10A0E7244303204F8012D04AA99
:101930009442294601D9002DEDD116F040039DF8BF
:101940000F500DD0ADB10122CDF80090019240466C
:101950000DF10F013346FFF75BFF013F054608E03D
:101960003DB104AA944284BF04F8015C04F1FF3441
:101970001D4608AB1A1BCDF8009001974046214642
:101980003346FFF745FF284409B0BDE8F083FFFF69
:101990002DE9F04F91B093469946CA079DF86C30F7
:1019A0001A9E059382460C461C9FDDF874800BD46A
:1019B0008B0703D10968814B994205D020460DF071
:1019C000ADFC400040F0010416F0810306D1059AF9
:1019D000302A03D14745B8BF47469846204610F005
:1019E00095FD002808A90BDDB50701D52B2302E0E2
:1019F000720705D520238DF820300DF1210500E078
:101A00000D46F30622D5BBF1020F06D12B4630203E
:101A100003F8020B09F1010016E0BBF1080F0AD12F
:101A2000B2054FF030032B7045BF09F10E036B7008
:101A3000013502350AE0BBF1100F07D12B463020EB
:101A400003F8020B09F1170068701D46002316F019
:101A5000200F0CBF18462C20B8F1010F0CAAC8BFEC
:101A600046F04006099216F0400F4FF010022B701E
:101A70000B938DF81F30A5EB01050A92CDF800B04D
:101A80005FFA89F315D00022019202930390234656
:101A900009A80AA90BAA10F0DDFB03782D2B8346B9
:101AA00015D18DF81F300B9B013B00F1010B0B93FF
:101AB0000DE00191029303900AA909A80BAA2346FD
:101AC00010F0C8FBB8F1010F834644DC02E0B8F126
:101AD000010F64DC4FF000094C46730619D59DF8E0
:101AE0001F3053B1002301220093019250460DF1A3
:101AF0001F01FFF78DFE013F044455B10023012271
:101B000001920093504608A92A46FFF781FE7F1BE9
:101B10000444059B0B9AB8F1010FC8BF47468DE8F6
:101B20008800504659463346FFF772FE0444B9F127
:101B3000000F09D0202300228DE8080250462049DA
:101B40001346FFF765FE044409980CAB984230D069
:101B5000FEF7CDFC2DE00B9C4445B8BF4446BC428B
:101B60000ADA06F00103002BA7EB040416BFA14616
:101B70004FF00009002402E04FF000094C4626F027
:101B800001064CB1202300228DE8180050460C4974
:101B90001346FFF73DFE0446302305939DE70B9C5B
:101BA0009DF81F304445B8BF444603B101342C446E
:101BB000D5E7204611B0BDE8F08F00BF000F03004D
:101BC000436E03002DE9F0418AB014469A0780461F
:101BD0001E46119F05D413F0040F0CBF00232023D1
:101BE00000E02B23129A08468DE80C0002A9234638
:101BF00020220BF013F9F30520EAE0750DD56B1CDC
:101C00001F2B0ADC0AAA1544252205F8202C0AAA53
:101C10001A44002102F8201C1D4616F0400412D080
:101C20009DF808302F2B4FF000030ED8012202A997
:101C3000009301924046FFF7EBFD013F0446013D52
:101C40000DF1090103E002A901E002A91C469DF87B
:101C5000403040468DE888002A463346FFF7D8FDDD
:101C600020440AB0BDE8F0812DE9F04F804689B0EC
:101C7000914600240B461D4613F8012B4AB98D42AC
:101C80000AD96E1A98E80900324698473444294622
:101C900002E0252AEFD1F2E70B78002B00F01F813C
:101CA00001314FF0200B00270A4611F8013BABB180
:101CB0002D2B02D147F00107F6E72B2B02D147F07D
:101CC0000207F1E7202B02D147F00407ECE7212BB4
:101CD00002D147F00807E7E7302B02D04FF0000AA7
:101CE00003E047F040079B46DEE7134612F8011B6E
:101CF000A1F13000092805D80A2303FB0A1AAAF12A
:101D0000300AF2E72E291E461CD15A782A2A02D020
:101D10000133002207E0D9F80020023609F104055A
:101D200022EAE27211E01878A0F1300109291E467A
:101D300003F1010304D80A2101FB0202303AF2E761
:101D40004D4602E04D464FF0FF3233786C2B08BF12
:101D500001363378002B00F0C280642B7AD013D880
:101D6000502B00F0838005D8A3F14501022940F2F1
:101D70008B80A2E0622B17D029D8582B40F09D8091
:101D800005F10409412374E0712B2DD004D8672B91
:101D90007AD9702B6AD090E0752B50D0782B65D013
:101DA000732B40F08A8031E02B68CDF800B005F14C
:101DB0000409CDF804A0404613B14B49042201E0C8
:101DC0004A4905223B46FFF723FD044485E008A964
:101DD0002B6801F8043D05F10409CDF800B0CDF8F9
:101DE00004A040460122EDE707A928680492FFF706
:101DF00038FB049ACDF800B00146501C05F10409E7
:101E000008BF079ACDF804A04046DBE705F10409B6
:101E10002D6865B1531C03D128461FF097F8024680
:101E2000CDF800B0CDF804A040462946CAE7CDF869
:101E300000B0CDF804A040462D490622C2E7612338
:101E40008DE88808CDF80CA005F104094046296802
:101E5000002209E061238DE88808CDF80CA02968EC
:101E600005F10409404601220A230AE005F10409AC
:101E700061238DE88808CDF80CA02968404600222F
:101E80001023FFF725FDA0E7073525F00705D5E965
:101E900000010593049226F04BFC059B049A0292E4
:101EA00001461A46CDF800B0CDF804A040463B46A6
:101EB00005F10809FFF786FE87E7252B06D00D48B8
:101EC0000D4A0E4B40F221211BF062FC98E80900FC
:101ED0003146012298470134A946711CCAE62046C2
:101EE00009B0BDE8F08F00BFACB70200B1B7020087
:101EF000B7B70200BEB7020098B70200CEB7020023
:101F00000EB403B503AA52F8041B0192FFF7ACFE0E
:101F100002B05DF804EB03B0704703781A0613D5DE
:101F200003F07F0340221A4203D023EA020352083F
:101F3000F9E710F8012F02F0C001802904D102F066
:101F40003F0242EA8313F4E718467047421C1046EA
:101F50000132037803F0C003802BF8D070470023D0
:101F6000814207D911F8012D02F0C002802A18BF62
:101F70000133F5E7184670470144034600208B42C1
:101F80001A4608D2127802F0C002802A03F1010337
:101F900018BF0130F3E770477F289DBF024B185CE4
:101FA000C0F340000020704717B802007F289DBF93
:101FB000024B185CC0F3C0000020704717B8020045
:101FC0007F289DBF024B185CC0F380000020704743
:101FD00017B802007F289DBF024B185CC0F3801029
:101FE0000020704717B802007F2809D8064B1B5CF9
:101FF00013F00C0F06D1A0F15F035842584170470F
:10200000002070470120704717B802007F289DBF4D
:10201000024B185CC0F300100020704717B8020094
:102020007F289DBF024B185CC0F340100020704712
:1020300017B8020010B50446FFF7E8FF10B104F12D
:10204000200010BD204610BD10B50446FFF7E8FF84
:1020500010B1A4F1200010BD204610BD3038092871
:1020600084BF20F0200007387047F0B51C09944267
:102070001AD2121B01EB4401154606466DB131F828
:10208000024B012D84BF0F8844EA074403F00F0779
:10209000FC4026F8024B013DF0E700EB420030F82F
:1020A000023C1BB9501EF0BD0020F0BD1046F0BD33
:1020B000F0B5059F0024D21B2546BC420AD031F85A
:1020C00014E033F814607644354420F814502D0C95
:1020D0000134F2E764000619023C214437461446F5
:1020E0003CB131F8023F1D4427F8025B013C2D0C46
:1020F000F6E706EB42031DB1012126F81210023368
:10210000181A4010F0BDF0B5059F0024D21B2546DB
:10211000BC420AD031F81460354433F81460AD1B6A
:1021200020F814502D140134F2E764000319023C26
:10213000214416461F463EB131F8024F254427F888
:10214000025B013E2D14F6E703EB4202023A8242A3
:10215000134603D31988023A0029F8D00233181A1B
:102160004010F0BD023981420B4603D31A88023970
:10217000002AF8D00233181A401070472DE9F043B6
:102180009E4608AB93E82802DDF81C80561E0239F3
:102190008446741C22D031F8027FC2EB0804344418
:1021A00007F57F47B44207F1FF072F449DBFBEF8F4
:1021B000005005F57F44FF344FF6FF744C4484EA29
:1021C000070513FA85F32CF8023B98BF0EF1020EB7
:1021D0004FEA14493D0C1B0C013EDAE700EB4201CB
:1021E00013B120F812300231BDE8F043FFF7BABF57
:1021F00010B5044638B18068FEF779F92046BDE88D
:102200001040FEF774B910BD38B505460C20FEF736
:1022100043F92A78037862F300036FF3410304461D
:10222000037028682368C0F39D0060F39F03236058
:102230006B686360AB680BB9A3600AE04000FEF70F
:102240002BF9A0602A68A968C2F39D0252001EF013
:1022500006FE204638BD10B54B0018441A4449B15B
:1022600030F8023D32F8024D1B1B002B04DB06D177
:102270000139F4E7084610BD4FF0FF3010BD0120D2
:1022800010BDFFFF38B50446806801298CBF0D469C
:10229000022518B12368B5EB930F11D923789B075A
:1022A00006D50848084A094B40F2D7211BF070FABE
:1022B0006900FEF70DF92368A06065F39F032360B2
:1022C00038BD00BFA7B80200EEB80200B3B80200E4
:1022D00038B505460C460221FFF7D4FF2B78002CB9
:1022E000B5BF43F001036FF300032B702B704FF069
:1022F0000003B4BF614221466B6039B16B68AA68C4
:10230000581C686022F81310090CF6E738BD0378F2
:1023100003F0FE036FF34103037003686FF39F0341
:102320000360002343608360704728B103789B07F4
:1023300002D48068FEF7DBB8704738B505460C4616
:102340004968FFF79FFF22782B78A868A16862F39D
:1023500000032B7063686B606268BDE83840520010
:102360001EF07DBD034609B959607047FFF7B0BF45
:1023700038B505460C46FFF7CAFF28462146BDE89A
:102380003840FFF7EFBF30B50578816005F0FE05F6
:1023900045F002050570056862F39F05002205609F
:1023A00042601946BDE83040FFF7DCBF70B504213C
:1023B000064614461D46FFF765FF9DF8102033784A
:1023C00052B1002C75F1000206DA43F001036242BB
:1023D000337065EB450304E06FF30003337022466E
:1023E0002B460021716052EA03010CD07168B0687D
:1023F0004C1C746020F81120110C41EA0341180CA8
:102400000A460346EFE770BD0378CA0F62F3000384
:102410002DE9F0410370C1F30F4313F4FF438046ED
:1024200004D10023C8F80430BDE8F081B3F5FF4FB4
:10243000F7D0C1F3C753A3F17F06002EF1DB04D11F
:102440000121BDE8F041FFF743BF162EC1F316018D
:10245000D8BF0026A3F16F074FF0100441F4000528
:1024600097FBF4F7D6BFC3F19603093634463946D5
:10247000C9BF963BDD4006F00F0693FBF4F4FFF76F
:1024800001FFC8F804702CB1D8F8080000216200E0
:102490001EF028FD4EB1D8F8083005FA06F2C6F154
:1024A000100623F81420F540013464007F00BC427C
:1024B00005D0D8F808301D532D0C0234F7E7BDE8DD
:1024C000F081FFFF2DE9F041069E232E04460D46C4
:1024D000984606D92748284A284B40F26A311BF013
:1024E00057F98F18C2F35B010131FFF7CBFE227859
:1024F000B8F1000F02D042F0010201E068F30002DF
:102500000023227063602946B94208462ED2027821
:10251000A2F13003092B01F101010CD9A2F1410311
:10252000192B02D8A2F1370305E0A2F16103192BA0
:102530001CD8A2F15703B34218D2A068D4F804E023
:102540008446724642B1BCF8008006FB08332CF882
:10255000023B013A1B0CF5E700EB4E0213B120F8E9
:102560001E300232121A52106260CDE7401BBDE8E5
:10257000F08100BFA7B80200DDB80200C1B80200B8
:102580004068B0FA80F04009704738B544680CB92B
:102590004B68CBB10B78057803F0010305F001021D
:1025A0009B1A11D14B6880688A689C4204D306D874
:1025B0002146FFF750FE03E04FF0FF3000E001201E
:1025C000EB0702D5404238BD184638BD884210B5E9
:1025D000044601D0FFF7B1FE23786FF300032370A8
:1025E00010BD884210B5044601D0FFF7A6FE23783F
:1025F000C3F30002C2F1010262F30003237010BDB5
:1026000088421FB5044601D0FFF797FE626842B9C1
:1026100020460121FFF736FEA26801231380636084
:1026200021E02378D9070ED56FF30003A06823704B
:102630000123ADF80E30009301460DF10E03FFF7B4
:1026400062FD606013E0511C2046FFF71BFEA0688E
:1026500062680123ADF80E30009301460DF10E03C0
:10266000FFF726FD6060237843F00103237004B078
:1026700010BD2DE9F84F0F4649680646144601B1D2
:102680002AB930463946BDE8F84FFFF756BE02F189
:102690000F052D092944FFF7F5FD7968B368B8687F
:1026A00005EB010814F00F0208F1004404F1FF34B7
:1026B00001F1004E6FF0010C4FEA44040EF1FF3EB1
:1026C0000CFB01FC0CEB4E0E2344704408BF10229F
:1026D00099464FF0000EC2F1100A59B130F811B00E
:1026E0004BEA0E0E2EFA0AFA29F802A94FEA0E4E0C
:1026F0000139F0E72EFA0AFE03EB0C0923F80CE08F
:102700006B00C3F1020305F100429944013A4846C7
:1027100052001EF0E7FB02344C44B8F1000F05D024
:1027200034F8023D13B908F1FF38F6E7C6F8048023
:102730003A78337862F300033370BDE8F88FF0B570
:102740000D46496885B00446164601B122B92046B7
:102750002946FFF7F2FD44E0FFF794FDA9686A6897
:10276000A0683346FFF781FC60602978237861F325
:1027700000032370DB07024633D500236868ADF8F9
:102780000E30310983420DD08B420BD0AF6837F841
:1027900013702FB101238142ADF80E3004D313E042
:1027A0000133EFE781421CD2AB6806F00F0633F825
:1027B0001100012101FA06F3013B184218BFADF8E0
:1027C0000E10BDF80E3063B10123A06812B903806A
:1027D000636006E0009301460DF10E03FFF768FC0D
:1027E000606005B0F0BD73B5154606460C468868B6
:1027F0006B6849689268994204D306D8FFF72BFDAD
:10280000002802DA23462C461D462A7823785340B6
:10281000DB070DD4616830460131FFF733FD6B688B
:102820000093B068A1686268AB68FFF741FC0BE0F9
:1028300030466168FFF726FD6B680093B068A168B9
:102840006268AB68FFF75FFC70602278337862F3F0
:102850000003337002B070BDF7B5154606460C464E
:1028600088686B6849689268994204D308D8FFF772
:10287000F2FC002804DA234601272C461D4600E01E
:1028800000272A7823785340DB070DD5616830464E
:102890000131FFF7F7FC6B680093B068A1686268CC
:1028A000AB68FFF705FC0BE030466168FFF7EAFC18
:1028B0006B680093B068A1686268AB68FFF723FC9F
:1028C0007060227833781FB1C2F30002C2F10102B6
:1028D00062F30003337003B0F0BD2DE9F04F1646EC
:1028E0004A6873689A420C463EBF34460B461E4601
:1028F0002378DA0785B0054621D4317811F0010735
:102900001DD16168FFF7BEFCA868A468D6F808E08E
:1029100072683946914208D03EF8116034F811309F
:10292000334020F811300131F4E700EB4101FFF7AB
:1029300019FC2B7868606FF300032B7065E0616809
:1029400028460131FFF79EFC2278317873680193A5
:1029500081EA020303F0010383F001035F42BFB287
:1029600002F00102A868D4F804E0009301F001012C
:102970000397A368D6F808805742BFB2C1F1000C94
:1029800002971FFA8CFC0EF1FF37A3F10209824671
:102990007B1C26D039F802BF029B8BEA030B019BFC
:1029A0005A44CEEB030BBB44BB4598BFB8F800B00C
:1029B000039B94BF8CEA0B0BE346594401EA020BDC
:1029C0008BEA030B009B13FA8BF32AF8023B4FEAC6
:1029D000134398BF08F10208090C120C0093013F41
:1029E000D6E7009B00EB4E011BB1012320F81E30FF
:1029F0000231FFF7B7FB686023783278C3F3000336
:102A000013402A7863F300022A7005B0BDE8F08F06
:102A10002DE9F84F17464A687B689A420D463EBF3B
:102A20003D460B461F462B78DB07064632D43B78E3
:102A300013F001042ED16968FFF724FCD7F808C011
:102A40006A687F68D6F808E0A968D01B2346BB42B5
:102A500008D03CF8134031F8132022432EF81320FD
:102A60000133F4E75B000EEB0302023B0B44144618
:102A7000014629B133F8025F24F8025B0139F8E717
:102A800002EB4002CEEB020233785210726061F327
:102A900000034DE0696830460131FFF7F3FB2B7806
:102AA0003C78D5F804E0B068AD68D7F808C0D7F82E
:102AB000048003F0010304F00104C3F1000967423C
:102AC0001FFA89F9BFB20EF1FF31023D82460122A1
:102AD000B1F1FF3F1FD035F802BF8BEA090B5B4411
:102AE000CEEB080B8B448B4596BFBCF800B0BB46C1
:102AF00087EA0B0B5C4444EA030B6FEA0B0B12FAF8
:102B00008BF22AF8022B98BF0CF1020C240C1B0C40
:102B1000120C0139DCE700EB4E011AB1012320F859
:102B20001E300231FFF71EFB3378706043F0010363
:102B30003370BDE8F88FF0B516464A6873689A425C
:102B400038BF0B460C463CBF34461E4623783778C8
:102B50005F4017F0010785B0054639D16168FFF77E
:102B600091FB2378716813F0010322D16268A86891
:102B7000A768B668521A8B4209D036F813E037F8C6
:102B800013408EEA040420F813400133F3E75B009E
:102B9000C118023B3B4414460E462CB133F8027F69
:102BA00026F8027B013CF8E701EB4201FFF7DAFA75
:102BB00009E08DE8820002970397A868A16862681F
:102BC000B368FFF7DBFA2B7868606FF300031DE052
:102BD00061680131FFF756FB73680093012301938D
:102BE0002378A86803F0010383F00103029333788C
:102BF00003F0010383F001030393B368A1686268E3
:102C0000FFF7BCFA2B78686043F001032B7005B026
:102C1000F0BD2DE9F04F4B6885B004460E461546D1
:102C20000BB1536823B90023636005B0BDE8F08F92
:102C3000814206D1FFF7E8FAB542074608D10546BA
:102C400006E0824206D1FFF7DFFA0546074602E0BA
:102C50003E4600E000277368696820461944FFF784
:102C600011FB2268A068C2F39D02002152001EF0F1
:102C700039F9B368D6F804E0D4F808A002936FF0ED
:102C8000010303FB0EF3D5F808806A6803930AEB8F
:102C90004E010020039B01EB030C2AB3029BCDF8ED
:102CA00004E0A3F102090023019878B1B8F800000C
:102CB00039F802BF0BFB0033BCF800B001985B444D
:102CC00001382CF8023B01901B0CEDE7084601F19E
:102CD000020C0BB10B806046CAEB00004010013AB9
:102CE00008F102086146D5E76060297833784B40E7
:102CF00013F0010F237838460CBF62F3000343F052
:102D00000103237005B0BDE8F04FFFF771BA4B68BF
:102D100070B50646144613B11378DA0702D50023BE
:102D2000736070BD636823B90121BDE87040FFF78F
:102D3000CFBA0846FFF768FA05462046FFF764FA5F
:102D4000012104463046FFF7C3FA636883B1A368E4
:102D50001B88DB0704D5304631462A46FFF759FF6A
:102D6000A068626801460123FFF77FF9606038B907
:102D70002846FFF73DFA2046BDE87040FFF738BA15
:102D8000284629462A46FFF744FFDEE72DE9F04FA3
:102D90009A4691B05B68039205460C4633B9AD483C
:102DA000AD4AAE4B40F2D1511AF0F2FC039B596888
:102DB0000131FFF767FA039BA8685A680132520095
:102DC00000211EF08FF800236B60039B596820469A
:102DD0000131FFF757FA20460399FFF7AEFADAF808
:102DE00008300193DAF804300293AB680493D4F806
:102DF0000480029BA66898450DD30FD83046414603
:102E0000019AFFF728FA002804D1049A6060012390
:102E1000138001E002DA00236B60FBE0029B03F108
:102E200000400138019B33F810304FEA400B00217D
:102E30001F048AB201F1010102D45B009BB2F7E7E3
:102E40004FEA48034FF0000E08F1010103F10209B7
:102E500026F818E0B1446160B446CC450ED2BCF807
:102E6000008008FA02F747EA0E0E2CF802EBC2F1D6
:102E7000100E28FA0EF81FFA88FEEEE7019F37F8C9
:102E8000100090400590029801280AD9384658440D
:102E9000059F30F8020CC2F1100E20FA0EF0074325
:102EA00005970298091A6960049801F100410139F7
:102EB00000EB410108910BF102010A913344616872
:102EC000029809938142069176D933F8021CB3F82F
:102ED00000B041EA0B4B0599BBFBF1FB0A99C1EB32
:102EE000030E0199CDF82CE0023907910F4600211D
:102EF00088469E4525D237F8020F3EF8029B904047
:102F000040EA18481FFA88F000FB0BF0484503D24E
:102F1000C0EB090C8C450ED80144C9EB0109C9F17D
:102F200000012EF8021C1FFA89F1003118BF01219F
:102F300001EB1941DDE7C1EB0C012EF8021C002169
:102F4000D7E733F80209814209D3091A4842588069
:102F500088B2003018BF012000EB11410BE0411A8C
:102F60005980002107E0B3F802E070445880A1EBDB
:102F700010410BF1FF3BB9B10020DDF81C90DDF8EA
:102F80002CE08046099FBE45EDD239F802CF0CFAFD
:102F900002FC4CEA1848BEF800C010FA88F0604401
:102FA0002EF8020B000CEDE7089921F802B9089100
:102FB00006990139616082E701F10043013B06EBAC
:102FC00043030021B34216D3B3F800E04EFA02F0F7
:102FD0000843C2F110010EFA01FE23F802091FFA9C
:102FE0008EF1EFE703F10042013A049931F8122023
:102FF0006AB9013B6B606B68002BF3D107E003F10A
:103000000042013A36F8122022B9013B636063683E
:10301000002BF4D1039B9AF800201B785340DB0768
:1030200014D52B7843F001032B70636873B10DA89E
:103030004FF0FF31FFF79CF9284629460DAAFFF70C
:10304000D2FB204621465246FFF7CDFB11B0BDE82A
:10305000F08F00BFA7B8020097B80200CBB80200FB
:1030600010B581684268002301EB4202914204D20C
:1030700032F8024D44EA0343F8E70278D20748BF2A
:103080005B42184610BD30B542688468002304EBEB
:103090004202944207D2B3F5004F0BD232F8025DE0
:1030A00045EA0343F5E70278D20748BF5B420B606D
:1030B000012030BD002030BD2DE9F043904609B11C
:1030C0009D1800E01D46846842680026A4F1020EA7
:1030D0004FF00109374642B33EF8024F103744EA39
:1030E0000646072F1FDD90F800C0B4B21CF0010F98
:1030F0001FBFE44359FA84F4A4B24FEA142939B14A
:1031000005F1FF3C9C4505F8014C08D1BDE8F08372
:1031100005F1010C2C7003EB0804A44505D0083F11
:10312000360A6546DDE7013AD5E7BDE8F083F8B534
:1031300086684468054606EB44040020A6420DD28A
:103140004FF08F4125F052FC074634F8020D25F070
:10315000F9FB0146384625F041FBEFE72B78DB070A
:1031600048BF00F10040F8BD2DE9F84F0B9C9DF8D9
:1031700028A08046894616469B46002C4AD08B1EC6
:103180001E2B03D900202070BDE8F88F47688FB947
:103190003AB1561E204616F8013F1BB100F8013B1C
:1031A000F9E7204630230370002300F8013F001B9D
:1031B000BDE8F88F7F003846FDF76EF9D8F80810A3
:1031C0003A461DF04CFE2146844623460CEB070090
:1031D000851E002265450AD3B5F800E04EEA02429A
:1031E000B2FBF9FE25F802E909FB1E22F2E73032B4
:1031F000392A84BFABF13A0552191A705D1C624638
:103200008242964609D2BEF800E00232BEF1000FBB
:10321000F6D007E02046BDE8F88FBAF1000F0FD0D6
:10322000012203E0BAF1000F08D00022681A032837
:1032300002BF9D1C83F801A029460AB92B46C5E7A9
:103240006046FDF754F966B130461DF07FFE2B460F
:103250003044B0421D4604D910F8012D03F8012B6B
:10326000F7E798F80030DB0742BF2D232B700135BC
:103270006B1E22469A4206D21178187802F8010B8A
:1032800003F80119F6E700232B70281BBDE8F88F1F
:103290008368C26893423DBF5A1C826018784FF021
:1032A000FF307047036810B5044613B14068FDF75E
:1032B0001EF92046BDE81040FDF719B9F8B50446DF
:1032C00010200E4615461F46FDF7F3F850B1064B89
:1032D0000760354446608660C5606360034B2060CC
:1032E000A3600120F8BD00BF91320000A5320000AC
:1032F0000369591C10B504462DD00A2B04D1C369AB
:103300000133C361012306E0092B036A04BF0733BD
:1033100023F007030133236263692361A3696361B7
:103320006068A36898472369A0610D2B09D10A231F
:10333000236163690A2B04D16061A36860689847C0
:10334000A061A369013306D163695A1C03D00A2B1B
:103350001CBF0A23A36110BD2DE9F84F00260446C7
:103360000F4686642069411C17D00A2804D12046E4
:10337000FFF7BEFF0126F5E7FEF70EFEF8B9236959
:10338000232B08D12046FFF7B3FF2369581CE9D04F
:103390000A2BF7D1E6E75C2B05D0E369256AA36326
:1033A000E56387B915E02046FFF7A2FF23690A2BE2
:1033B00005D0E369A363236AE3630423C4E12046E1
:1033C000FFF796FFCEE7012B03D1012D01D0062395
:1033D00046E0636A002B03DA072284F840202CE0E1
:1033E00005D0062284F84020013B636289E1002E6B
:1033F00039D0A36A002B36D1226B606B052384F889
:10340000403002F10043013B013D30F813309D4252
:1034100000F0778113D9E16A8A4207D30831490065
:10342000FDF756F8E36A60630833E362236B626B6F
:10343000591C216322F81350636A0133D5E7236BCB
:1034400003F10042013A30F81220954205D2013BC7
:103450002363636A013B6362F1E700F05281022358
:1034600084F840304DE12069421C01D10023F7E788
:10347000272800F06382222800F06082752803D09C
:1034800020F01003622B04D16369272B10D0222B6C
:103490000ED0722802D16369622B03E0622826D124
:1034A0006369722B23D1A369272B01D0222B1ED154
:1034B000752803D12046FFF71BFF3FE262280BD19E
:1034C0002046FFF715FF2369722B40F04681204606
:1034D000FFF70EFF012641E1722840F02F822046BF
:1034E000FFF706FF2369622BF1D0012627E2FEF7E2
:1034F0005DFD216918B95F2901D07F291FD90823F3
:1035000004F1440584F840302846C9B2FEF7C6F8F5
:103510002046FFF7EDFE2069411C00F0F280FEF727
:1035200045FD10B12846217CF0E720695F28F9D0DD
:103530007F28F7D8FEF744FD0028F3D1E1E00846E4
:10354000FEF73EFD30B121692E290CD10A2384F803
:1035500040301BE023692E2B52D16069FEF730FD0D
:103560000028F0D14CE00923302984F840300DD1F7
:10357000656945F02005622D06D06F2D04D0A5F1B8
:1035800078025542554102E0012500E0002504F192
:1035900044063046FEF78AF82046FFF7A9FE206968
:1035A000431C00F0AE809DB920F02003452B0FD1C5
:1035B0000A23652184F840303046FEF777F820462C
:1035C000FFF796FE21692B29E3D02D29E7D1E0E70B
:1035D000FEF7ECFC18B121692E2909D10CE0206915
:1035E000FEF7EEFC0028F6D123692E2BF3D088E0FD
:1035F00021F020034A2BCCD10A2384F84030C8E7BD
:1036000021692E291FD104F144063046FEF74EF8F9
:103610002046FFF76DFE23692E2B40F09C816569E3
:103620002E2D40F0988130462946FEF73FF8294676
:103630003046FEF73BF82046FFF75AFE2046FFF7DC
:1036400057FE0D230CE7B84D00262F7877B1B9420D
:103650000CD0652F05F1010304D0632F02D0452F54
:1036600001D1013E1D4601360135EEE72046FFF748
:103670003FFE0FB90123F3E6013537462B78652B62
:103680000DD16B7822699A4207F1010705D12046D6
:103690000135FFF72DFE3E4601E00235EEE72B78BF
:1036A000452B0AD16B7822699A4204D12046FFF754
:1036B0001FFE3E460FE001230FE0632B0BD16B781A
:1036C00022699A4207F1010705D12046FFF710FE53
:1036D00002353E46D2E7954B9B5D84F8403094F826
:1036E000403003F0FD02442A01D0482B02D1A36AE6
:1036F000013305E0452A01D0492B02D1A36A013BE1
:10370000A36294F84030082B40F02981E06CA56C4E
:103710000023874A52F823200021A942164607D0E9
:103720003778465CB74202F1010211D10131F4E76A
:1037300012786AB9232B40F010817E4BD3F8C43045
:10374000002B0CBF10230E2384F84030BDE8F88F07
:103750000133242BDDD1BDE8F88F00260C2384F83B
:1037600040304FF0010923692046222B14BF4FF04F
:10377000270A4FF0220AFFF7BBFD236953450BD1FF
:103780006369534508D12046FFF7B2FD2046FFF795
:10379000AFFD4FF0030801E04FF001080025276955
:1037A000781C00F0B680B8F1010F02D10A2F00F0AA
:1037B000B080454580F0B280574506D104F1440001
:1037C00051460135FDF772FF9FE05C2F40F0978076
:1037D0002046FFF78DFD25691EB104F144003946EE
:1037E0006BE0622D00F0B58010D84E2D4BD005D87F
:1037F000222D66D0272D64D00A2D18E05C2D60D0D4
:10380000612D00F0A480552D40D11AE0742D10D008
:1038100007D86E2D0FD0722D11D0662D36D10C2504
:1038200052E0762D09D00CD3782D18D06B1C6BD0BC
:103830002CE0092548E00A2546E00B2544E00D254B
:1038400042E0B9F1000F05D004F144005C21FDF71E
:103850002DFF39E0752D0CBF0427082700E0022753
:10386000002517F1FF372AD32046FFF741FDD4F892
:1038700010B05846FEF7AEFB90B35846FEF7EEFB8D
:103880002D010544EDE72C480BF0C2F8A5F13003FB
:10389000072B0FD81D4603276369303B072B0ED833
:1038A000013F0CD02046FFF723FD2369303B03EB9B
:1038B000C505F1E704F144005C21FDF7F7FE6F1C3C
:1038C00022D0B5F5881F16D2B9F1000F05D104F149
:1038D00044002946FDF7EAFE16E0FF2D07D90AE06D
:1038E000012384F84030B9F1000F2ED0054604F1D1
:1038F0004400E9B206E0012384F8403004E004F11A
:103900004400F9B2FDF7CAFE00252046FFF7F0FC9F
:1039100045E745453CBF032384F8403004F14400AB
:103920002946FDF738FFECE6B8B90200FBB8020003
:1039300028B902004C8DFF1FFAB9020000260B23A4
:1039400084F840304FF000090DE74D46BFE70725EA
:10395000BAE70825B8E74C2382E50E33F4E6BDE864
:10396000F88F00BF10B5044670B1C368406898472F
:1039700004F14400FDF756FE606BFCF7B8FD2046ED
:10398000BDE81040FCF7B3BD10BD2DE9F04385B094
:1039900001AD85E80E00804654200E46029FFCF7DC
:1039A00088FD044618B93046039B98474AE0034611
:1039B00095E8070043F8048B4FF0000983E80700FF
:1039C0000A250123E36123622363C4F82490C4F829
:1039D0002890E5621420FCF76CFD2021606304F15F
:1039E0004400FDF7F1FDD4F83480B8F1000F04D1A4
:1039F0002046FFF7B7FF404625E03046A8F8009084
:103A0000B84720613046B84760613046B847226900
:103A1000A061561C04D06369591C06D10D2A01D13E
:103A200025610BE00A2A04D108E0013006D10D2BF4
:103A300001D1656102E00A2B18BFA5612046012172
:103A4000FFF78AFC204605B0BDE8F08330B585B0AD
:103A500001AC05462046FFF731FC20B1284694E82A
:103A60000E00FFF792FF05B030BD0021FFF774BCD8
:103A7000F8B5846A06460D46DCB194E80A002B448A
:103A80008B4223D90831002220462944FCF72DFD22
:103A9000024650B9616820460831FCF726FD63688C
:103AA0002360736A6360746203E023682B442360BD
:103AB0000CE0802D2F4638BF802707F10800FCF767
:103AC000EBFC0023076043600446B0626068054475
:103AD000656008302044F8BD70B50D460C210646DF
:103AE0001446FFF7C5FF10B90123337070BD40F2D3
:103AF000B31305604360846070BDFFFF08B50378B1
:103B00008BB943698B4206D80848094A094B4FF4E0
:103B1000AF7119F03DFE03F18043013B5B1A8269EE
:103B200052F8230008BD002008BD00BF56C00200A7
:103B300098C4020064C0020008B5037873B94369F1
:103B400033B90748074A084B4FF4AB7119F020FE10
:103B5000013B8269436152F8230008BD002008BD83
:103B600056C00200A8BA020083C0020038B503782C
:103B700004460D46BBB9016943698B420DD3103130
:103B8000806989000122FCF7B0FC10B90123237081
:103B900038BD2369A061103323616369A269591C90
:103BA000616142F8235038BD2DE9F347C4690E46E0
:103BB00094F840100829054618D1E06CA16CFDF777
:103BC0008FFB3378802B04460CD1810041F0020139
:103BD00005F12C0000220BF09BF818B1416841F070
:103BE000010162E0210141F002015EE009290BD1EF
:103BF00000222346E06CA16C09F0B6FBC307024625
:103C00000CD540F0010150E00A290DD100940122A9
:103C1000E06CA16C002309F033FC0246A16B28463E
:103C2000FFF75AFF014640E0A1F10B03012B39D801
:103C3000A16CE06C0A2902D8FDF752FB01E0FDF708
:103C40001BFB064694F8403030B10B2B0CBF06210D
:103C50000A2141EA001128E00B2B28464FF0100101
:103C6000D4F838A0D4F84C90A76C0CBF4FF0B10832
:103C70004FF0B208FFF7FCFE044618B901232B7081
:103C8000314612E048F400734360C0F800A03846A3
:103C9000FCF702FC49463A461DF0E1F8E760A060F7
:103CA000214602E0090141F00E01284602B0BDE8BC
:103CB000F047FFF75BBFF8B51D46037804460F4693
:103CC000164603BB416883688B420DD31031C06830
:103CD000C9000122FCF709FC10B901232370F8BDCB
:103CE0006268E06010326260A268E168531CA36001
:103CF00051F8320067F3170041F8320001EBC203BC
:103D00003278DA705D60F8BD01F46043B3F5005FAE
:103D100010B504D00C480D4A0D4BD82107E0C1F373
:103D20000B03AF2B05D90848084A0A4BDA2119F0D2
:103D30002FFDC269916B084ABDE8104052F823205C
:103D40000023FFF7B8BF00BF56C002005ABB0200F5
:103D5000A0C00200FFC0020034BC0200EE2807D061
:103D600010F0010306D043080CBF0120002070476B
:103D70000120704718467047B0F5877F07D010F0D4
:103D8000010306D0430814BF012000207047012022
:103D9000704718467047FFFF10F0010203D040F053
:103DA0000100086013E0B8B110F0030311D10279EB
:103DB000B32A10D183680B6013F0010007D19A0772
:103DC0000AD11B6805481B1A584258417047012008
:103DD0007047104670471846704700BF000F030039
:103DE0002DE9FF471678832E0446884617461D4660
:103DF0000AD10021FFF782FE30B1830740F0DB815A
:103E00000379872B40F0D781A6F16403012B3AD8C0
:103E1000A9462E46B9F1000F0ED009F1FF39204610
:103E20004946FFF76BFE6369A2699B1B824642F815
:103E30002300B9F1000F03D1013E4FF0000915E056
:103E40003B78642B07D1FFF797FF0028F4D1504649
:103E5000FFF784FF06E0FFF781FF0028ECD1504612
:103E6000FFF78AFF0028D5D1013ED3E7B14505D23F
:103E70002046FFF761FE09F10109F7E7AD1B012DAF
:103E800000F0998117E0672E15D120460021FFF739
:103E900035FE0646FFF762FF28B93046FFF76CFF94
:103EA00048B1EE2501E04FF487752046FFF744FE48
:103EB000204629467DE13B78A3F16E02022A2BD8E9
:103EC000691E2046FFF71AFE01A9FFF765FF0028CB
:103ED00000F053813B786E2B06D06F2B0CBF4FF058
:103EE00001094FF0020901E04FF00009AE1E002E5B
:103EF000C0F2308131462046FFF700FE02A9FFF7ED
:103F00004BFF002800F0398148460199029A0AF0D7
:103F100079FB013E0190EAE703F0FD02712A01D02E
:103F2000752B3CD1691E2046FFF7E8FD01A9FFF77C
:103F300033FF002800F02181AE1E002E40F30A81DD
:103F4000711E2046FFF7DAFD02A9FFF725FF0028C2
:103F500000F0138120463146FFF7D0FD974BC0F3A8
:103F60000710184410F8319CB9F1FF0F00F00581DB
:103F700002980EF0CBFAB9F1040F02D8002806DA45
:103F8000FBE0B9F1070F02D9002800F0F68048469F
:103F90000199029A0AF036FB023E0190CDE7782B98
:103FA00025D100212046FFF7A9FD01A9FFF7F4FE66
:103FB000002800F0E28020460121FFF79FFDC0F3BA
:103FC0000710312809D0322809D03F2809D07C4871
:103FD0007C4A7D4B40F26A215DE0032002E0042030
:103FE00000E00520019909F0E9FC0190B2E0202BE6
:103FF00072D120460021FFF781FD0646002800F01F
:10400000BC8010F0030904D10379223B012B40F25C
:10401000B48020460121FFF771FD00F00F03022B51
:1040200040F0AB80B9F1000F40F0A78033797D2BD1
:1040300040F0A380B36803F00F02022A40F09D8095
:1040400040F26B11B1EB131F40F09780F368002B27
:1040500000F09380990740F0908019798D2940F005
:104060008C80D3F808A01AF0010F4FEA101601D186
:10407000227082E0B10004F12C0041F00201012223
:104080000AF046FE43684FEA6A0933B14C484D4A8C
:104090004E4B4FF4237119F07BFB4FEA490949F06D
:1040A000010343603046FDF7D7F903785F2B2046C4
:1040B0000BD1FFF741FD2046FFF73EFD00212046D2
:1040C000434A0B46FFF78CFE75E0FFF735FD2046AF
:1040D0005146FFF74BFD50E07D2B4ED1012120468C
:1040E000FFF70CFD002106462046FFF707FD06F00E
:1040F0000F03022B41D100283FD083073DD1037924
:104100008F2B3AD1816801F00F03022B05D02C4888
:104110002C4A304B40F2AE21BDE74FEA111931096C
:1041200089002D4841F0020100220AF0F1FD20B380
:104130004068494602AA09F05DFD029BEBB1D90730
:1041400005D49A0719D11968244A914215D1039AC6
:104150009AB9019325B12046FFF7EEFC013DF9E73E
:10416000019AD307204602D542F0010121E02946F9
:10417000FFF7B2FC014620461BE0AE1CB60020460D
:104180003146FFF775FC814610B90123237012E018
:10419000C0F800803B7843EA05234360064435B10C
:1041A0002046FFF7C9FC013D46F8040DF7E720461D
:1041B0004946FFF7DBFC04B0BDE8F0874EC30200C0
:1041C00056C0020036C0020020C1020039C1020000
:1041D000CCC4020054C10200A4BB0200000F0300C3
:1041E000036830B513B91360184630BD9C0702D080
:1041F0001060012030BD5C68E5B28D42F8D103F15A
:1042000008011160200A30BD2DE9F04F93B0002461
:10421000402301904FF400700E46924605938DF8AE
:1042200010400694FCF745F920230790802008935E
:104230000994FCF73EF921460A900FA80B960D94BD
:104240000E940AF01DFD079B002B00F0D6810A9BFF
:10425000002B00F0D281BAF1000F05D0BAF1020FA5
:104260000CBF0423012300E053469F4CB16B54F86C
:10427000232004A80023FFF71EFD00270294069BBD
:10428000002B00F09A819DF81010002940F09581D4
:10429000079A029D013B02EBC3000693C47852F8D3
:1042A000333055F82450446895F801B00BF03002D3
:1042B000202AC3F317080BF00F0940D0302A00F072
:1042C000FE80102A40F0738114B10FB90027D6E7A1
:1042D00005EB44024C4530D232F8023F03F4704102
:1042E000B1F5805F0DD196F84010C3F30B039942EE
:1042F0001FD104A82946FFF757FC3046FFF7B5FB4E
:10430000E4E7B1F5005F05D07848794A794B4FF47E
:1043100052711BE0631C4B4504D204A841462A4657
:10432000FFF7C9FC05EB440404A86188FFF7ECFC27
:10433000CCE70134CEE7012C37D801279FE78FB1B6
:1043400034B96A486A4A6C4B40F2573119F020FA86
:1043500035F8143003F47043B3F5405FEBD104A893
:10436000FFF704FC05EB440709E0082A03D104A881
:104370002946FFF719FC3046FFF777FB01344C451F
:1043800024D237F8023F03F47042B2F5005F14D034
:10439000B2F5405F11D0B2F5805F13D196F840209E
:1043A000DBB29A42E1D0002CC7D096F84030062B01
:1043B00040F030815148524932E104A841462A4632
:1043C000631CADE7494840F28731F3E005D0474828
:1043D000474A4C4B4FF46371B8E7BAF1000F07D06E
:1043E0002B78202B04D104A80021FFF787FB20B1F4
:1043F000002705EB440BB94632E004A80121FFF782
:104400007DFB870704D000F00F00022805D1EFE7FD
:104410000028EDD00379B12BEAD104A8FFF78CFB7B
:1044200004A8FFF789FB38B1810705D10379B12BC7
:1044300002D18068FCF75BF804A84146324A0023A9
:10444000B2E03BF8023903F47041B1F5805F04F14A
:10445000FF3408D1DBB2082B02D1013709F1010981
:10446000002CEED108E004A83946FFF747FB08B15D
:1044700009F101090137F3E7B9F1010F3B4611D109
:104480006A7852060ED52546BC4204A806D0FFF72E
:1044900053FB0134002818BF0546F5E72946FFF70E
:1044A00065FB13E795F90120002A04DA04A800212E
:1044B000FFF75CFB7B1C04A841462A4674E0AFB3BF
:1044C000B9F1020F04D1012C3FF437AF00224FE0C5
:1044D000012C3FF432AF14F0010249D0B9F1030FBF
:1044E0007FF463AF012243E034BC020056C00200F7
:1044F0001AC4020078C102008EC10200F405030054
:104500000FC2020094C10200CCC4020096F8401011
:10451000CCF30B0C614504F10104D1D11AB904A804
:104520002946FFF741FB3046FFF79FFA0BF00102E7
:10453000224005EB4201B1F802C00CF47041B1F524
:10454000805FE3D0B1F5005F0ED104A841462A4652
:10455000631CCDF80CC0FFF7AEFBDDF80CC004A85F
:104560006146FFF7D1FB8AE6454840F20E4121E063
:104570002CB94348434A444B40F21341E6E61BF052
:10458000010F04F1FF3706D0AB8803F47043B3F595
:10459000805F08BF6708012F02D1002A3FF496AE62
:1045A00004A841462A463B46FFF71AFC8EE63448EB
:1045B00040F22B41334A354BC8E60FA80AF082FB84
:1045C0000E9850B1416800220831FBF78EFF0E9B18
:1045D0005A681A600D9A5A600D939DF810307BB19D
:1045E000022B02D12A482B491AE0012B05D024487E
:1045F000244A294B4FF48961A8E6284828490FE04E
:1046000096F84040002C7FF4D0AE099B002B3FF47D
:10461000CCAE0AE0022B07BF224823491C4823499D
:104620000CF0B2FD0023044609E0012B05D014482C
:10463000144A1F4B40F2674188E60A9B1B680798A3
:104640000C93FBF754FF0A98FBF751FF5CB120462F
:104650003168B26B00230CF0E7FD3046FFF782F9BA
:104660002046FBF7F9FE3046FFF77CF90CAB93E8E8
:104670000300019B83E80300184613B0BDE8F08FE8
:1046800056C002001AC402009BC102002F11030091
:10469000C0020300A2C10200BEC102003803030031
:1046A000E7C10200F405030021C2020055C2020066
:1046B00064C2020010B5406820B14468FBF717FFE0
:1046C0002046F9E710BDFFFF2DE9F04105463020F7
:1046D0000E4690461F46FBF7EFFE072D0446057079
:1046E000C660A0F8108001D0012D0BD10EB1B30728
:1046F00005D00C480C4A0D4B312119F049F8B3682C
:104700001B0901E00A4B5B5D638208F0FDFF042397
:1047100060616776E3842020FBF7BEFEE0622046FE
:10472000BDE8F08101C5020092C502000FC502007C
:10473000DEC4020010B50446C06AFBF7D8FE20466E
:10474000BDE81040FBF7D3BE30B5048D0022A24275
:1047500007D2C36A03EBC2035D688D4202D0013207
:10476000F5E70023184630BD70B504460E461546E1
:10477000FFF7EAFF08B1002319E0E18C238D8B429B
:1047800008D30631E06AC900FBF7A2FEE38CE062C1
:104790000633E384228DE16A531C01EBC2002385BA
:1047A000002301F8323043704380466001232B70B0
:1047B00070BD43680BB11846FBE7FFF7C5BFFFFFAD
:1047C0004368F7B507460C461646002B39D05D689E
:1047D000002D36D018463146FFF7B6FF2B4600288D
:1047E000F5D00378023B022B2BD8042323707C687E
:1047F00084B91648164A174B6E2112E020463146FE
:104800000DF10702FFF7B0FF9DF807305BB10423FD
:10481000037064686368002BF0D10C480C4A0E4B9F
:10482000702118F0B5FF0378022B02D10323037027
:1048300009E0033B012B06D90448054A074B7E21BA
:10484000EFE70023237003B0F0BD00BF01C50200F5
:10485000E5C402002BC5020041C5020053C5020099
:10486000838B426A0133918C9BB29942838338BF18
:10487000938470472DE9F04180461F46B9B111F08D
:1048800003050FD14868C3B293420BD1060A0C1D31
:10489000B54205DA404654F8041FB8470135F7E73A
:1048A000BDE8F08140463B46BDE8F0411847BDE811
:1048B000F081FFFF8968024B9822FFF7DBBF00BF42
:1048C000116700008968024B4022FFF7D3BF00BF89
:1048D000CD4D0000C36A10B50446D3F8C830806AD5
:1048E0009847E36AA06A9B6D0F219847E36AA06A24
:1048F000D3F82431BDE81040184738B5C36A0446E0
:104900001B6F806A9847E36AA06AD3F814510021AC
:104910000B460A46A8472046BDE83840FFF7DABFF5
:10492000C36A8968DB6E806A09091847C36A8968A7
:104930005B6E806A184710B5044608461146226827
:10494000FFF7C2FE636A436000238360236A0BB9EA
:10495000206210BD9A680AB11346FBE7986010BD4B
:104960002DE9F74FB2F1000904460D469A4605DAE3
:104970002F48304A304B4FF4027106E0002B06DA24
:104980002B482C4A2D4B40F2092118F001FF18BF8B
:104990000B7EA1F81E901CBF43F008030B76436A00
:1049A0001B785BB9E36AA06AD3F8086129464A46D6
:1049B0005346B44603B0BDE8F04F60470026B0460A
:1049C000636A1A8D964223DADB6A03EBC60B13F88F
:1049D0003630033B012B19D800272B8D9F4215DA67
:1049E000EB6A03EBC70213F83730042B0CD1DBF86A
:1049F00004105368994207D1E36AA06A9B69BBF827
:104A00000220984708F101080137E6E70136D7E7A9
:104A1000B8F1000FC6D0E36ACDF800A0D3F80C615E
:104A2000A06A294642464B46B04703B0BDE8F08F26
:104A3000FDC60200DAD502000DC7020021C7020040
:104A40002DE9F041044688460021C579878AC68A47
:104A5000C1718182C18211461A46104BFFF70AFFCD
:104A6000A368C3B9E18A51B1A38A43B9E36AA06AD2
:104A7000D3F8E4309847E36AA06A9B6E98472046D3
:104A80004146E28AA38AFFF76BFF003518BF012574
:104A9000E571A782E682BDE8F08100BFE15F00001A
:104AA00070B54379012B05460C4606D1436A0221B5
:104AB00022465B7EFFF73FFF206128462169A268FE
:104AC0001523BDE87040FFF7BBBF70B513464279B0
:104AD000012A06460C4604D107212246FFF72BFF88
:104AE000A061A569E268304629460D23FFF7A8FFBB
:104AF000688A70BD0246407901280B4602D1506A8F
:104B000003F0AEBCD16A906A526A183103F0D0BC8F
:104B10000246407901280B4602D1506A03F0B1BC2D
:104B2000D16A906A526A283103F0C2BC10B5436A58
:104B30005A7E0446FFF7C9FF01462046BDE81040F3
:104B4000FFF7E6BF0246407901280B4602D1506AC2
:104B500003F097BCD16A906A526A383103F0A8BC5E
:104B60002DE9F74F05460C4609B9012114E011F073
:104B700003070AD10B793D2B08D1CB681B091360C1
:104B80008C68002CF1D0012700E0002704F00F030F
:104B9000022B07D1210907B91160EB6AA86ADB6C07
:104BA00098475AE0A30703D16668F3B2412B06D0B9
:104BB0002B482C4A2C4B40F2EF3118F0E9FD17B985
:104BC000A3681B091360360A04F1040A06F1FF38D2
:104BD000D3464FF00009B14508DA5BF8040F00092D
:104BE000FCF735FC09F101098044F4E740466946C9
:104BF000FCF7EEFB4FF000098046B14517DAB9F13A
:104C0000000F04D02E2388F8003008F101085AF86C
:104C1000040F01A90009FCF724FC019A0146404653
:104C20001CF01DF9019B09F101099844E5E7009882
:104C3000FCF7E8FBEB6A0146DB6CA86A984767B1B2
:104C400008340127B74208DAEB6A54F8041FDB6E18
:104C5000A86A090998470137F4E703B0BDE8F08F67
:104C6000FDC60200B8D5020034C702002DE9F341A9
:104C70008D6805F00F030E2B04460E4605D03DB39C
:104C8000A90725D12B793A2B02D1009500250BE0FD
:104C9000372B1DD1AB680093ED682DB94748484AC2
:104CA000484B40F22D4152E03A2101AA6846FFF7F5
:104CB00097FA0023019A194683420ADA52F82370C0
:104CC00040F2CE4E77450CBF013103310133F3E79B
:104CD0000021F268A06A40F23E339A42E36ADB6D3B
:104CE00013D19847E36AA06A1B6E02219847E36AD2
:104CF000A06AD3F8E430012198472046294601AA4A
:104D0000FFF72EFFE36A5B6D52E0984706F10C0057
:104D10003F216A46FFF764FA002680460BE09A07B7
:104D200010D11A793C2A0DD19968E26AA06A136EF3
:104D300009099847013646450BDA009B53F826309F
:104D4000002BECD11D4840F255411D4A1E4B18F076
:104D50001FFDE36AA06AD3F8E43041469847204635
:104D6000294601AAFFF7FCFE002646451DDA009BF6
:104D700053F8265025B1AB0702D12B793C2B03D039
:104D80000E484FF48C61E0E7AF68E36AA06A1B6DE0
:104D90003F0939469847E968204609B9394600E095
:104DA0000909FFF7B5FE0136DFE7E36AD3F894306F
:104DB000A06A984702B0BDE8F08100BFFDC60200BE
:104DC000A4D5020065C702008EC70200C36A37B5CA
:104DD00004460D46DB6D806A00219847E36AA06AAD
:104DE0009B6D0F2198472046294601AAFFF7B8FE80
:104DF00020460199FFF78CFE03B030BD036823B94C
:104E000019B18B0704BF0B680360704708B50388AE
:104E10002BB90448044A054B8F2118F0B9FC013B1B
:104E2000038008BDFDC6020059D90200CBC70200AD
:104E300038B5836804460D465BB9114605480CF049
:104E4000A3F92946A06004F10C00BDE83840FFF743
:104E5000D5BF38BDC00203002DE9F04F0446012341
:104E60006271616203610B78072B89B00D461646AB
:104E700002D00021984A4DE0012A07D9436B006B0C
:104E80001F68114604F108032A46B847EF680FB1BE
:104E9000BA0705D09148924A924B40F61F4108E06C
:104EA0003B7901970B2B06D08C488D4A8E4B40F6F0
:104EB000214118F06DFC6379032B10D10D2107AA55
:104EC00007F10C00FFF78CF9636B079A9B680146AA
:104ED000206B9847A3686883002B40F0F7803969FE
:104EE000F9B101F00F05022D17D10B09B3F5E67FDB
:104EF0001AD004D8B3F5A67F0AD1012514E0B3F582
:104F0000077F10D040F29E22934201D103250BE08F
:104F1000764A2046FFF78CFFDBE02046744AFFF715
:104F200087FF022500E0002508A87B6940F80C3DBA
:104F30005D2106AAFFF754F94FF000080290029B8A
:104F4000984580F2B980069A52F828104FEA880BEB
:104F500009B18B0705D06148614A664B40F647416D
:104F6000A7E70A792A2A00F0A480202A02D0204646
:104F7000614ACFE78A680AB1970705D05748584A6F
:104F80005E4B40F6544194E7C8680028EFD1107991
:104F90007D28ECD1976807F00F000228E7D1D2F8FE
:104FA0000C90B9F1000FE2D019F0030FDFD199F89E
:104FB00004208D2ADBD109F10800A32107AAFFF7FD
:104FC0000FF93F09B7F5F37F824621D1012805D0BB
:104FD000069A204652F80B10494A9BE70798026848
:104FE00002F00F02022AF3D12169012E01F1010220
:104FF000226159D90268676B206BFF681209B847B4
:10500000002851D1069A204652F80B103D4A81E7FC
:1050100040F23312974213D1012805D0069A204658
:1050200052F80B10384A75E7079A1168C807F5D58A
:10503000012E39D9636B206B1B694910984733E007
:1050400040F27512974225D1012805DC069A2046C8
:1050500052F80B102D4A5DE7079A1268D107F5D573
:10506000012E21D953100393012757451CD0079ACD
:1050700052F82720D30705D4069A204652F80B1081
:10508000234A47E7616B206B4B690399521098479D
:105090000137EAE7012E07D9636B206BD3F818C0FC
:1050A000079B39465246E047A36813B1CDF80490F8
:1050B0000CE008F1010842E76379012B04D9636B26
:1050C000206B5B6829469847A36813B1019B1B6856
:1050D000E36009B0BDE8F08FE6C70200FDC602003C
:1050E000E8C502000AC802002DC802005AC8020022
:1050F00067C802008FC80200B1C80200D4C802000D
:10510000FCC8020018C9020028C9020044C90200F4
:1051100069C90200014AFFF78BBE00BF8BC90200BC
:1051200073B50546406A067E0C46B10703D528468E
:105130002146374A63E004F00F01022901D1210919
:105140000DE00CB1A10705D03248334A334B40F68D
:10515000B2212DE0217991420CD1A1680909EB79A6
:105160001BB1838B0133838302E0438B0133438381
:10517000012638E0994226D1EB79002BD7D10123C3
:10518000EB71A368002B40D003F00F02022A05D177
:10519000037E43F001030376A16811E09A0702D170
:1051A0001B79142B06D01B481B4A1D4B40F6CE2101
:1051B00018F0EEFA037E43F001030376A3689968C2
:1051C000090903260FE09DF81830994205D01148CF
:1051D000114A144B40F6D521EAE7A16846F00206D1
:1051E00006760909052681B1686A0DF10702FFF705
:1051F000BBFA9DF807302BB90B4A28462146FFF72A
:1052000017FE02E002230370467002B070BD00BFBB
:1052100055C20200FDC60200B8D902000FC5020047
:10522000A8C90200DFC902000DCA020007B5192390
:10523000009317221823FFF773FF03B05DF804FBF8
:1052400007B5112300930F221023FFF769FF03B066
:105250005DF804FB2DE9F04F0F46002557F8043F99
:1052600089B004464FEA1328BB46A946AA464545DD
:1052700039DA5BF8040F820712D000F00F06062E11
:1052800007D00A2E05D03648364A374B40F6E4019F
:105290000CE000090191FCF7DAF80199824417E06B
:1052A00030B92F482F4A314B40F6E70118F070FA19
:1052B0000379B12B07D0B22B07D02948294A2C4BB0
:1052C00040F6EC01F2E7062600E00A26C3689A449D
:1052D00035B14E4505D02046264AFFF7A9FD3CE0F2
:1052E000B1460135C3E76379042B05D0E36AA06AB0
:1052F0005B6E2149984730E0514604A8FCF775F9E8
:10530000069D4FF0000AC24518DA57F8046FB3073C
:105310000AD003A93009FCF7A4F8039A01462846ED
:105320001BF09DFD039B05E02846B168F2681BF069
:1053300096FDF3681D440AF1010AE4E7E36A0F48A9
:105340005D6E0F4BA46A04A9B9F1060F18BF184689
:105350000FF064FA01462046A84709B0BDE8F08F77
:10536000FDC6020077D9020026CA020068CA020000
:105370008FCA0200C1CA0200AC140300F81F030068
:10538000B41F0300438B70B5044613B90B4AFFF7F3
:105390004FFDA28BE38B9A4206D20948094A0A4B79
:1053A0004FF4697118F0F4F9E16AA06AD1F8B050CD
:1053B000618BD21A2B46BDE870401847E8CA02003C
:1053C000FDC6020094C6020000CB0200038B70B53C
:1053D000044613B90B4AFFF72BFDA28BE38B9A42CD
:1053E00006D20948094A0A4B4FF4677118F0D0F900
:1053F000E16AA06AD1F8AC50218BD21A2B46BDE8E5
:10540000704018473CCB0200FDC6020081C6020076
:1054100000CB020070B5054600293BD08A0739D180
:105420000B790F2B12D0102B08D18968002931D0AD
:105430008B072FD10B79142B2CD107E0112B05D022
:105440001548164A164B40F605310DE0CC680CB3F2
:105450008968686A0909FFF777F9034630B90E4889
:105460000E4A104B40F60F3118F092F904F00F017C
:10547000022908D1EA6AA86A16685A88B44623093C
:10548000BDE87040604728462146074ABDE87040A5
:10549000FFF7CEBC70BD00BFFDC60200F3D5020011
:1054A00051CB02008DCB02009DCB020037B50446E4
:1054B0000D4600294BD0CA0704D5C36A806ADB6D4C
:1054C000491043E08B072ED005F00F05062D4FEA5B
:1054D000111106D00A2D08D0022D1CD1FFF70AFBAE
:1054E00035E0C36A806A1B6E30E04379042B04D038
:1054F000C36A18495B6E806A28E0084601A9FBF779
:10550000B0FFE36A0199A46A5D6E0FF07BFC01466F
:105510002046A8471BE0052919D0C36A806A9B6D05
:10552000C9B2984713E0C36A09685B69806A984703
:105530002A79094B53F8223033B90848084A094BF5
:1055400040F69A2118F024F920462946984703B0DE
:1055500030BD00BFAC14030074D60200FDC60200CB
:1055600064C60200C8CB02002DE9F14F04460D4687
:1055700016461F462846FEF7F1FB002856D128465E
:10558000FEF7FAFB00285FD1002D64D0A90762D195
:105590006B684FEA1328DBB2642B04D13EB10435AB
:1055A0004FF000092CE0652B36D1002EF7D0D4F84F
:1055B000109009F10103236105F1040B4FF0000A7B
:1055C00008F1FF339A450ADA20465BF8041F86F09B
:1055D00001024B46FFF7C8FF0AF1010AF0E708F1A4
:1055E0000108204655F828103B463246FFF7BCFF1D
:1055F000E36AA06A9B6C494601B0BDE8F04F1847CA
:10560000C14536DA204655F8041F32463B46FFF7BF
:10561000ABFF09F10109F3E7672B03D1AD6886F011
:105620000106A7E7832B16D1AB680BB90EBB0CE0C4
:105630009A0702D11B79872B06D00F480F4A104BCF
:1056400040F2251118F0A4F89EB1E36AA06AD3F8DD
:10565000A0303946D0E720462946FFF727FFE36A06
:10566000A06AD3F8A43031463A4601B0BDE8F04F05
:10567000184701B0BDE8F08FFDC60200AED90200A8
:10568000D2CB0200436A1B78072B10B50A460446AA
:1056900006D0022B04D0124ABDE81040FFF7C8BB69
:1056A000916829B9E36AA06A9B6D0F2198470FE0C2
:1056B0008B0720460AD10B79AF2B07D18968FFF7FA
:1056C000F5FE2046BDE81040FFF704B9FFF7EEFEF7
:1056D000E36AA06AD3F82031BDE81040184700BF44
:1056E00010CC020070B54D682D0A022D04460B4601
:1056F00005D01C481C4A1D4B40F616110BE0CD6826
:1057000025B1A90702D12979AB2906D01548164A37
:10571000174B40F6171118F03BF84179012906D1D3
:10572000466A11461A46737EFFF705F96861002242
:10573000134620466969FFF713F9E9682046FFF729
:10574000B5FEE36AA06AD3F8C8309847E36AA06A56
:10575000D3F810510022AC4601211346BDE8704039
:10576000604700BFFDC60200AEC5020029CC0200A2
:1057700052CC02002DE9F04F87B00446039101920C
:105780001E460D4649BB83793BB3436A1B78072B02
:1057900023D140F20111FFF7ADF9626A108D29465D
:1057A000814216DAD36A03EBC1035D78ED070ED5AB
:1057B000E26AA06A95695A880121A847E36AA06A4B
:1057C000D3F81051002202211346A8478DE0013181
:1057D000E6E720460021464A22E003A8A32105AAC5
:1057E000FEF7FEFC4FF0000A8346D046D1465546F0
:1057F000574604E045F0010599460AF1010ADA45E9
:105800004BDA059B53F82A30002B3DD099073BD14A
:105810001A79A52A07D1EA07ECD5364A2046194657
:10582000FFF706FB61E0A62A09D1A80703D52046A9
:105830001946314AF4E745F002059846DDE7A72A04
:1058400022D1DA6822B1910702D11279AB2A15D0A0
:10585000996801F00F02022A03D020461946274A10
:10586000DEE7E26AA06A126E029309099047029B82
:105870002046D968FFF71AFE0137BEE720461946D1
:105880000622FFF72FFF06E0204619460FB11C4AFB
:10589000C6E7FFF70BFE0136AFE7CDB1B9F1000F58
:1058A00004D1E36AA06A9B6E984704E02046D9F8C9
:1058B0000810FFF7FBFDB8F1000F04D1E36AA06AFE
:1058C0009B6E984704E02046D8F80810FFF7EEFDDD
:1058D000019AE36A12B1D3F814C101E0D3F810C100
:1058E000A06A31463A462B46E04707B0BDE8F08F44
:1058F0008BCC0200A9CC0200C0CC0200D8CC0200A4
:10590000F9CC020070B50D464179012904461346D1
:1059100003D12A46FFF70FF86861E36AA06A5B6F5C
:1059200098476E690022134620463146FFF718F863
:10593000E36A718A1B6EA06A9847E96829B18B07F0
:1059400003D10B79A22B08BF002100222046A271AF
:105950000223FFF70FFF708A70BD10B5436A5A7EAD
:105960000446FFF7CFFF01462046BDE81040FFF791
:10597000CFB8002289681346FFF7FCBE38B50C4645
:105980000546C968FFF792FD2846A168BDE8384082
:10599000FFF78CBD0B79932B70B5044605D02448D6
:1059A000244A254B40F6DC112AE08D682DB9C36AE4
:1059B000806A9B6D0F21984732E0A9072DD12B7982
:1059C000952B06D1C36A806A9B6D0F219847A96801
:1059D00019E0962B21D1A968FFF768FDEB680BB1A0
:1059E0009A0705D01248134A144B40F6F11107E00C
:1059F0001A79972A06D00E480E4A114B40F6F31139
:105A000017F0C6FE996859B12046FFF74FFDE36ACB
:105A1000A06AD3F8F830032107E02946FFF746FDD6
:105A2000E36AA06AD3F8F8300221BDE87040184755
:105A3000FDC6020022C602001BCD02004CCD0200B2
:105A400073CD020038B5C36A04460D469B6D806A6B
:105A50000F21984720462946BDE83840FFF79ABFF6
:105A600010B504468968FFF721FDE36AA06A9B6FC1
:105A7000BDE810401847FFFF2DE9F7438D68044645
:105A80002DB9C36A806AD3F8EC302946A3E0AA078F
:105A900040F098802B799C2B0FD1C36A806AD3F891
:105AA000EC300121984720462946FFF7FFFCE36AC6
:105AB000A06AD3F8F03098478EE09B2B40F08280AC
:105AC000E86808B1830705D04548464A464B4FF47D
:105AD000186164E003799F2B5AD1A021083001AAF4
